{
  "contractName": "ProofOfExistence2",
  "abi": [
    {
      "constant": true,
      "inputs": [
        {
          "internalType": "bytes32",
          "name": "",
          "type": "bytes32"
        }
      ],
      "name": "proofs",
      "outputs": [
        {
          "internalType": "bool",
          "name": "",
          "type": "bool"
        }
      ],
      "payable": false,
      "stateMutability": "view",
      "type": "function"
    },
    {
      "constant": false,
      "inputs": [
        {
          "internalType": "bytes32",
          "name": "proof",
          "type": "bytes32"
        }
      ],
      "name": "storeProof",
      "outputs": [],
      "payable": false,
      "stateMutability": "nonpayable",
      "type": "function"
    },
    {
      "constant": false,
      "inputs": [
        {
          "internalType": "string",
          "name": "document",
          "type": "string"
        }
      ],
      "name": "notarize",
      "outputs": [],
      "payable": false,
      "stateMutability": "nonpayable",
      "type": "function"
    },
    {
      "constant": true,
      "inputs": [
        {
          "internalType": "string",
          "name": "document",
          "type": "string"
        }
      ],
      "name": "proofFor",
      "outputs": [
        {
          "internalType": "bytes32",
          "name": "",
          "type": "bytes32"
        }
      ],
      "payable": false,
      "stateMutability": "pure",
      "type": "function"
    },
    {
      "constant": true,
      "inputs": [
        {
          "internalType": "string",
          "name": "document",
          "type": "string"
        }
      ],
      "name": "checkDocument",
      "outputs": [
        {
          "internalType": "bool",
          "name": "",
          "type": "bool"
        }
      ],
      "payable": false,
      "stateMutability": "view",
      "type": "function"
    },
    {
      "constant": true,
      "inputs": [
        {
          "internalType": "bytes32",
          "name": "proof",
          "type": "bytes32"
        }
      ],
      "name": "hasProof",
      "outputs": [
        {
          "internalType": "bool",
          "name": "",
          "type": "bool"
        }
      ],
      "payable": false,
      "stateMutability": "view",
      "type": "function"
    }
  ],
  "bytecode": "0x608060405234801561001057600080fd5b50610518806100206000396000f3fe608060405234801561001057600080fd5b50600436106100625760003560e01c8063444d95b01461006757806353fb9233146100ad5780637183616c146101805780638952877b1461023b578063e3d1e6d614610269578063f6c1acdf146102af575b600080fd5b6100936004803603602081101561007d57600080fd5b810190808035906020019092919050505061037e565b604051808215151515815260200191505060405180910390f35b610166600480360360208110156100c357600080fd5b81019080803590602001906401000000008111156100e057600080fd5b8201836020820111156100f257600080fd5b8035906020019184600183028401116401000000008311171561011457600080fd5b91908080601f016020809104026020016040519081016040528093929190818152602001838380828437600081840152601f19601f82011690508083019250505050505050919291929050505061039e565b604051808215151515815260200191505060405180910390f35b6102396004803603602081101561019657600080fd5b81019080803590602001906401000000008111156101b357600080fd5b8201836020820111156101c557600080fd5b803590602001918460018302840111640100000000831117156101e757600080fd5b91908080601f016020809104026020016040519081016040528093929190818152602001838380828437600081840152601f19601f8201169050808301925050505050505091929192905050506103bd565b005b6102676004803603602081101561025157600080fd5b81019080803590602001909291905050506103e5565b005b6102956004803603602081101561027f57600080fd5b8101908080359060200190929190505050610413565b604051808215151515815260200191505060405180910390f35b610368600480360360208110156102c557600080fd5b81019080803590602001906401000000008111156102e257600080fd5b8201836020820111156102f457600080fd5b8035906020019184600183028401116401000000008311171561031657600080fd5b91908080601f016020809104026020016040519081016040528093929190818152602001838380828437600081840152601f19601f82011690508083019250505050505050919291929050505061043c565b6040518082815260200191505060405180910390f35b60006020528060005260406000206000915054906101000a900460ff1681565b6000806103aa8361043c565b90506103b581610413565b915050919050565b6103c68161039e565b6103e25760006103d58261043c565b90506103e0816103e5565b505b50565b600160008083815260200190815260200160002060006101000a81548160ff02191690831515021790555050565b600080600083815260200190815260200160002060009054906101000a900460ff169050919050565b60006002826040518082805190602001908083835b602083106104745780518252602082019150602081019050602083039250610451565b6001836020036101000a038019825116818451168082178552505050505050905001915050602060405180830381855afa1580156104b6573d6000803e3d6000fd5b5050506040513d60208110156104cb57600080fd5b8101908080519060200190929190505050905091905056fea265627a7a7231582020ec12443e5d04fd056dc254a0800f44b881f9b561adcf815fa0d2b996cb277364736f6c63430005100032",
  "source": "// SPDX-License-Identifier: MIT\npragma solidity >=0.4.22 <0.9.0;\n\n// Proof of Existence contract, version 1\ncontract ProofOfExistence2 {\n  // state\n   mapping (bytes32 => bool) public proofs;\n\n  function storeProof(bytes32 proof) public {\n    proofs[proof] = true;\n  }\n  // calculate and store the proof for a document\n  // *transactional function*\n  function notarize(string memory document) public{\n    //checkDocument first here\n    if (!checkDocument(document)){\n    bytes32 proof = proofFor(document);\n    storeProof(proof);\n    }\n  }\n  // helper function to get a document's sha256\n  function proofFor(string memory document) public pure returns (bytes32) {\n    return sha256(bytes(document));\n  }\n\n  // check if a document has been notarized\n  // *read-only function*\n  function checkDocument(string memory document) public view returns (bool) {\n    bytes32 proof = proofFor(document);\n    return hasProof(proof);\n  }\n  // returns true if proof is stored\n  // *read-only function*\n  function hasProof(bytes32 proof) public view returns (bool) {\n    return proofs[proof];\n  }\n}",
  "sourcePath": "/home/rampeylabs/Documents/solidity-experiments/contracts/ProofOfExistence2.sol",
  "compiler": {
    "name": "solc",
    "version": "0.5.16+commit.9c3226ce.Emscripten.clang"
  },
  "schemaVersion": "3.4.3",
  "updatedAt": "2021-09-04T10:12:04.391Z",
  "networkType": "ethereum",
  "devdoc": {
    "methods": {}
  },
  "userdoc": {
    "methods": {}
  }
}