{
  "contractName": "ProofOfExistence1",
  "abi": [
    {
      "constant": true,
      "inputs": [],
      "name": "proof",
      "outputs": [
        {
          "internalType": "bytes32",
          "name": "",
          "type": "bytes32"
        }
      ],
      "payable": false,
      "stateMutability": "view",
      "type": "function"
    },
    {
      "constant": false,
      "inputs": [
        {
          "internalType": "string",
          "name": "document",
          "type": "string"
        }
      ],
      "name": "notarize",
      "outputs": [],
      "payable": false,
      "stateMutability": "nonpayable",
      "type": "function"
    }
  ],
  "bytecode": "0x608060405234801561001057600080fd5b50610208806100206000396000f3fe608060405234801561001057600080fd5b50600436106100365760003560e01c80637183616c1461003b578063faf924cf146100f6575b600080fd5b6100f46004803603602081101561005157600080fd5b810190808035906020019064010000000081111561006e57600080fd5b82018360208201111561008057600080fd5b803590602001918460018302840111640100000000831117156100a257600080fd5b91908080601f016020809104026020016040519081016040528093929190818152602001838380828437600081840152601f19601f820116905080830192505050505050509192919290505050610114565b005b6100fe610126565b6040518082815260200191505060405180910390f35b61011d8161012c565b60008190555050565b60005481565b60006002826040518082805190602001908083835b602083106101645780518252602082019150602081019050602083039250610141565b6001836020036101000a038019825116818451168082178552505050505050905001915050602060405180830381855afa1580156101a6573d6000803e3d6000fd5b5050506040513d60208110156101bb57600080fd5b8101908080519060200190929190505050905091905056fea265627a7a72315820d7c97c03ef2f3fcfc380ec19c8cc162f34ee286ff9d144a06d9d0d169092b2fd64736f6c63430005100032",
  "source": "// SPDX-License-Identifier: MIT\npragma solidity >=0.4.22 <0.9.0;\n\n// Proof of Existence contract, version 1\ncontract ProofOfExistence1 {\n  // state\n  bytes32 public proof;\n  // calculate and store the proof for a document\n  // *transactional function*\n  function notarize(string memory document) public{\n    proof = proofFor(document);\n  }\n  // helper function to get a document's sha256\n  // *read-only function*\n  function proofFor(string memory document) private pure returns (bytes32) {\n    return sha256(bytes(document));\n  }\n}",
  "sourcePath": "/home/rampeylabs/Documents/solidity-experiments/contracts/ProofOfExistence1.sol",
  "compiler": {
    "name": "solc",
    "version": "0.5.16+commit.9c3226ce.Emscripten.clang"
  },
  "schemaVersion": "3.4.3",
  "updatedAt": "2021-09-01T13:42:49.825Z",
  "networkType": "ethereum",
  "devdoc": {
    "methods": {}
  },
  "userdoc": {
    "methods": {}
  }
}