{
  "contractName": "ShapeSwap",
  "abi": [
    {
      "inputs": [],
      "stateMutability": "nonpayable",
      "type": "constructor"
    },
    {
      "anonymous": false,
      "inputs": [
        {
          "indexed": true,
          "internalType": "address",
          "name": "owner",
          "type": "address"
        },
        {
          "indexed": true,
          "internalType": "address",
          "name": "approved",
          "type": "address"
        },
        {
          "indexed": true,
          "internalType": "uint256",
          "name": "tokenId",
          "type": "uint256"
        }
      ],
      "name": "Approval",
      "type": "event"
    },
    {
      "anonymous": false,
      "inputs": [
        {
          "indexed": true,
          "internalType": "address",
          "name": "owner",
          "type": "address"
        },
        {
          "indexed": true,
          "internalType": "address",
          "name": "operator",
          "type": "address"
        },
        {
          "indexed": false,
          "internalType": "bool",
          "name": "approved",
          "type": "bool"
        }
      ],
      "name": "ApprovalForAll",
      "type": "event"
    },
    {
      "anonymous": false,
      "inputs": [
        {
          "indexed": true,
          "internalType": "address",
          "name": "previousOwner",
          "type": "address"
        },
        {
          "indexed": true,
          "internalType": "address",
          "name": "newOwner",
          "type": "address"
        }
      ],
      "name": "OwnershipTransferred",
      "type": "event"
    },
    {
      "anonymous": false,
      "inputs": [
        {
          "indexed": true,
          "internalType": "address",
          "name": "from",
          "type": "address"
        },
        {
          "indexed": true,
          "internalType": "address",
          "name": "to",
          "type": "address"
        },
        {
          "indexed": true,
          "internalType": "uint256",
          "name": "tokenId",
          "type": "uint256"
        }
      ],
      "name": "Transfer",
      "type": "event"
    },
    {
      "inputs": [
        {
          "internalType": "address",
          "name": "to",
          "type": "address"
        },
        {
          "internalType": "uint256",
          "name": "tokenId",
          "type": "uint256"
        }
      ],
      "name": "approve",
      "outputs": [],
      "stateMutability": "nonpayable",
      "type": "function"
    },
    {
      "inputs": [
        {
          "internalType": "address",
          "name": "owner",
          "type": "address"
        }
      ],
      "name": "balanceOf",
      "outputs": [
        {
          "internalType": "uint256",
          "name": "",
          "type": "uint256"
        }
      ],
      "stateMutability": "view",
      "type": "function",
      "constant": true
    },
    {
      "inputs": [
        {
          "internalType": "uint256",
          "name": "tokenId",
          "type": "uint256"
        }
      ],
      "name": "getApproved",
      "outputs": [
        {
          "internalType": "address",
          "name": "",
          "type": "address"
        }
      ],
      "stateMutability": "view",
      "type": "function",
      "constant": true
    },
    {
      "inputs": [
        {
          "internalType": "address",
          "name": "owner",
          "type": "address"
        },
        {
          "internalType": "address",
          "name": "operator",
          "type": "address"
        }
      ],
      "name": "isApprovedForAll",
      "outputs": [
        {
          "internalType": "bool",
          "name": "",
          "type": "bool"
        }
      ],
      "stateMutability": "view",
      "type": "function",
      "constant": true
    },
    {
      "inputs": [],
      "name": "name",
      "outputs": [
        {
          "internalType": "string",
          "name": "",
          "type": "string"
        }
      ],
      "stateMutability": "view",
      "type": "function",
      "constant": true
    },
    {
      "inputs": [],
      "name": "owner",
      "outputs": [
        {
          "internalType": "address",
          "name": "",
          "type": "address"
        }
      ],
      "stateMutability": "view",
      "type": "function",
      "constant": true
    },
    {
      "inputs": [
        {
          "internalType": "uint256",
          "name": "tokenId",
          "type": "uint256"
        }
      ],
      "name": "ownerOf",
      "outputs": [
        {
          "internalType": "address",
          "name": "",
          "type": "address"
        }
      ],
      "stateMutability": "view",
      "type": "function",
      "constant": true
    },
    {
      "inputs": [],
      "name": "renounceOwnership",
      "outputs": [],
      "stateMutability": "nonpayable",
      "type": "function"
    },
    {
      "inputs": [
        {
          "internalType": "address",
          "name": "from",
          "type": "address"
        },
        {
          "internalType": "address",
          "name": "to",
          "type": "address"
        },
        {
          "internalType": "uint256",
          "name": "tokenId",
          "type": "uint256"
        }
      ],
      "name": "safeTransferFrom",
      "outputs": [],
      "stateMutability": "nonpayable",
      "type": "function"
    },
    {
      "inputs": [
        {
          "internalType": "address",
          "name": "from",
          "type": "address"
        },
        {
          "internalType": "address",
          "name": "to",
          "type": "address"
        },
        {
          "internalType": "uint256",
          "name": "tokenId",
          "type": "uint256"
        },
        {
          "internalType": "bytes",
          "name": "_data",
          "type": "bytes"
        }
      ],
      "name": "safeTransferFrom",
      "outputs": [],
      "stateMutability": "nonpayable",
      "type": "function"
    },
    {
      "inputs": [
        {
          "internalType": "address",
          "name": "operator",
          "type": "address"
        },
        {
          "internalType": "bool",
          "name": "approved",
          "type": "bool"
        }
      ],
      "name": "setApprovalForAll",
      "outputs": [],
      "stateMutability": "nonpayable",
      "type": "function"
    },
    {
      "inputs": [],
      "name": "svg",
      "outputs": [
        {
          "internalType": "string",
          "name": "",
          "type": "string"
        }
      ],
      "stateMutability": "view",
      "type": "function",
      "constant": true
    },
    {
      "inputs": [],
      "name": "symbol",
      "outputs": [
        {
          "internalType": "string",
          "name": "",
          "type": "string"
        }
      ],
      "stateMutability": "view",
      "type": "function",
      "constant": true
    },
    {
      "inputs": [
        {
          "internalType": "uint256",
          "name": "index",
          "type": "uint256"
        }
      ],
      "name": "tokenByIndex",
      "outputs": [
        {
          "internalType": "uint256",
          "name": "",
          "type": "uint256"
        }
      ],
      "stateMutability": "view",
      "type": "function",
      "constant": true
    },
    {
      "inputs": [
        {
          "internalType": "uint256",
          "name": "",
          "type": "uint256"
        }
      ],
      "name": "tokenIdToColor",
      "outputs": [
        {
          "internalType": "string",
          "name": "",
          "type": "string"
        }
      ],
      "stateMutability": "view",
      "type": "function",
      "constant": true
    },
    {
      "inputs": [
        {
          "internalType": "address",
          "name": "owner",
          "type": "address"
        },
        {
          "internalType": "uint256",
          "name": "index",
          "type": "uint256"
        }
      ],
      "name": "tokenOfOwnerByIndex",
      "outputs": [
        {
          "internalType": "uint256",
          "name": "",
          "type": "uint256"
        }
      ],
      "stateMutability": "view",
      "type": "function",
      "constant": true
    },
    {
      "inputs": [],
      "name": "totalSupply",
      "outputs": [
        {
          "internalType": "uint256",
          "name": "",
          "type": "uint256"
        }
      ],
      "stateMutability": "view",
      "type": "function",
      "constant": true
    },
    {
      "inputs": [
        {
          "internalType": "address",
          "name": "from",
          "type": "address"
        },
        {
          "internalType": "address",
          "name": "to",
          "type": "address"
        },
        {
          "internalType": "uint256",
          "name": "tokenId",
          "type": "uint256"
        }
      ],
      "name": "transferFrom",
      "outputs": [],
      "stateMutability": "nonpayable",
      "type": "function"
    },
    {
      "inputs": [
        {
          "internalType": "address",
          "name": "newOwner",
          "type": "address"
        }
      ],
      "name": "transferOwnership",
      "outputs": [],
      "stateMutability": "nonpayable",
      "type": "function"
    },
    {
      "inputs": [
        {
          "internalType": "string",
          "name": "s",
          "type": "string"
        }
      ],
      "name": "initSvg",
      "outputs": [],
      "stateMutability": "nonpayable",
      "type": "function"
    },
    {
      "inputs": [
        {
          "internalType": "string",
          "name": "color",
          "type": "string"
        }
      ],
      "name": "mintShape",
      "outputs": [],
      "stateMutability": "nonpayable",
      "type": "function"
    },
    {
      "inputs": [
        {
          "internalType": "uint256",
          "name": "tokenId",
          "type": "uint256"
        },
        {
          "internalType": "string",
          "name": "color",
          "type": "string"
        }
      ],
      "name": "updateColor",
      "outputs": [],
      "stateMutability": "nonpayable",
      "type": "function"
    },
    {
      "inputs": [
        {
          "internalType": "string",
          "name": "s",
          "type": "string"
        }
      ],
      "name": "svgToImageURI",
      "outputs": [
        {
          "internalType": "string",
          "name": "",
          "type": "string"
        }
      ],
      "stateMutability": "pure",
      "type": "function",
      "constant": true
    },
    {
      "inputs": [
        {
          "internalType": "string",
          "name": "color",
          "type": "string"
        }
      ],
      "name": "generateSvgFrom",
      "outputs": [
        {
          "internalType": "string",
          "name": "",
          "type": "string"
        }
      ],
      "stateMutability": "view",
      "type": "function",
      "constant": true
    },
    {
      "inputs": [
        {
          "internalType": "uint256",
          "name": "tokenId",
          "type": "uint256"
        }
      ],
      "name": "tokenURI",
      "outputs": [
        {
          "internalType": "string",
          "name": "",
          "type": "string"
        }
      ],
      "stateMutability": "view",
      "type": "function",
      "constant": true
    },
    {
      "inputs": [
        {
          "internalType": "bytes4",
          "name": "interfaceId",
          "type": "bytes4"
        }
      ],
      "name": "supportsInterface",
      "outputs": [
        {
          "internalType": "bool",
          "name": "",
          "type": "bool"
        }
      ],
      "stateMutability": "view",
      "type": "function",
      "constant": true
    }
  ],
  "bytecode": "0x60806040523480156200001157600080fd5b506040518060400160405280600981526020017f53686170655377617000000000000000000000000000000000000000000000008152506040518060400160405280600581526020017f5368617065000000000000000000000000000000000000000000000000000000815250816000908051906020019062000096929190620001a6565b508060019080519060200190620000af929190620001a6565b505050620000d2620000c6620000d860201b60201c565b620000e060201b60201c565b620002bb565b600033905090565b6000600a60009054906101000a900473ffffffffffffffffffffffffffffffffffffffff16905081600a60006101000a81548173ffffffffffffffffffffffffffffffffffffffff021916908373ffffffffffffffffffffffffffffffffffffffff1602179055508173ffffffffffffffffffffffffffffffffffffffff168173ffffffffffffffffffffffffffffffffffffffff167f8be0079c531659141344cd1fd0a4f28419497f9722a3daafe3b4186f6b6457e060405160405180910390a35050565b828054620001b49062000256565b90600052602060002090601f016020900481019282620001d8576000855562000224565b82601f10620001f357805160ff191683800117855562000224565b8280016001018555821562000224579182015b828111156200022357825182559160200191906001019062000206565b5b50905062000233919062000237565b5090565b5b808211156200025257600081600090555060010162000238565b5090565b600060028204905060018216806200026f57607f821691505b602082108114156200028657620002856200028c565b5b50919050565b7f4e487b7100000000000000000000000000000000000000000000000000000000600052602260045260246000fd5b61433e80620002cb6000396000f3fe608060405234801561001057600080fd5b506004361061018e5760003560e01c806370a08231116100de578063b88d4fde11610097578063d6037bfd11610071578063d6037bfd146104a7578063e985e9c5146104c3578063ea220717146104f3578063f2fde38b146105235761018e565b8063b88d4fde1461043d578063bd85f55f14610459578063c87b56dd146104775761018e565b806370a082311461038f578063715018a6146103bf5780638da5cb5b146103c957806395d89b41146103e7578063a22cb46514610405578063ae5ea81d146104215761018e565b806323b872dd1161014b57806342842e0e1161012557806342842e0e146102f75780634f6ccce7146103135780634fa14073146103435780636352211e1461035f5761018e565b806323b872dd1461027b5780632f745c591461029757806330d871c6146102c75761018e565b806301ffc9a71461019357806306fdde03146101c3578063081812fc146101e1578063095ea7b31461021157806318160ddd1461022d5780631f7bcab91461024b575b600080fd5b6101ad60048036038101906101a89190612f37565b61053f565b6040516101ba9190613a6f565b60405180910390f35b6101cb610551565b6040516101d89190613a8a565b60405180910390f35b6101fb60048036038101906101f69190612fca565b6105e3565b6040516102089190613a08565b60405180910390f35b61022b60048036038101906102269190612efb565b610668565b005b610235610780565b6040516102429190613cec565b60405180910390f35b61026560048036038101906102609190612f89565b61078d565b6040516102729190613a8a565b60405180910390f35b61029560048036038101906102909190612df5565b6108b7565b005b6102b160048036038101906102ac9190612efb565b610917565b6040516102be9190613cec565b60405180910390f35b6102e160048036038101906102dc9190612f89565b6109bc565b6040516102ee9190613a8a565b60405180910390f35b610311600480360381019061030c9190612df5565b610a4f565b005b61032d60048036038101906103289190612fca565b610a6f565b60405161033a9190613cec565b60405180910390f35b61035d60048036038101906103589190612f89565b610b06565b005b61037960048036038101906103749190612fca565b610b9c565b6040516103869190613a08565b60405180910390f35b6103a960048036038101906103a49190612d90565b610c4e565b6040516103b69190613cec565b60405180910390f35b6103c7610d06565b005b6103d1610d8e565b6040516103de9190613a08565b60405180910390f35b6103ef610db8565b6040516103fc9190613a8a565b60405180910390f35b61041f600480360381019061041a9190612ebf565b610e4a565b005b61043b60048036038101906104369190612ff3565b610fcb565b005b61045760048036038101906104529190612e44565b6110bb565b005b61046161111d565b60405161046e9190613a8a565b60405180910390f35b610491600480360381019061048c9190612fca565b6111ab565b60405161049e9190613a8a565b60405180910390f35b6104c160048036038101906104bc9190612f89565b6112f4565b005b6104dd60048036038101906104d89190612db9565b6113ad565b6040516104ea9190613a6f565b60405180910390f35b61050d60048036038101906105089190612fca565b611441565b60405161051a9190613a8a565b60405180910390f35b61053d60048036038101906105389190612d90565b6114e1565b005b600061054a826115d9565b9050919050565b60606000805461056090614117565b80601f016020809104026020016040519081016040528092919081815260200182805461058c90614117565b80156105d95780601f106105ae576101008083540402835291602001916105d9565b820191906000526020600020905b8154815290600101906020018083116105bc57829003601f168201915b5050505050905090565b60006105ee82611653565b61062d576040517f08c379a000000000000000000000000000000000000000000000000000000000815260040161062490613c0c565b60405180910390fd5b6004600083815260200190815260200160002060009054906101000a900473ffffffffffffffffffffffffffffffffffffffff169050919050565b600061067382610b9c565b90508073ffffffffffffffffffffffffffffffffffffffff168373ffffffffffffffffffffffffffffffffffffffff1614156106e4576040517f08c379a00000000000000000000000000000000000000000000000000000000081526004016106db90613c8c565b60405180910390fd5b8073ffffffffffffffffffffffffffffffffffffffff166107036116bf565b73ffffffffffffffffffffffffffffffffffffffff16148061073257506107318161072c6116bf565b6113ad565b5b610771576040517f08c379a000000000000000000000000000000000000000000000000000000000815260040161076890613b8c565b60405180910390fd5b61077b83836116c7565b505050565b6000600880549050905090565b60606000610824600c80546107a190614117565b80601f01602080910402602001604051908101604052809291908181526020018280546107cd90614117565b801561081a5780601f106107ef5761010080835404028352916020019161081a565b820191906000526020600020905b8154815290600101906020018083116107fd57829003601f168201915b5050505050611780565b905060006108786108696040518060400160405280600781526020017f7b706172616d7d00000000000000000000000000000000000000000000000000815250611780565b836117ae90919063ffffffff16565b9050610883816117c8565b8461088d846117c8565b60405160200161089f93929190613972565b60405160208183030381529060405292505050919050565b6108c86108c26116bf565b8261186a565b610907576040517f08c379a00000000000000000000000000000000000000000000000000000000081526004016108fe90613cac565b60405180910390fd5b610912838383611948565b505050565b600061092283610c4e565b8210610963576040517f08c379a000000000000000000000000000000000000000000000000000000000815260040161095a90613aac565b60405180910390fd5b600660008473ffffffffffffffffffffffffffffffffffffffff1673ffffffffffffffffffffffffffffffffffffffff168152602001908152602001600020600083815260200190815260200160002054905092915050565b606060006040518060400160405280601a81526020017f646174613a696d6167652f7376672b786d6c3b6261736536342c00000000000081525090506000610a2284604051602001610a0e9190613937565b604051602081830303815290604052611ba4565b90508181604051602001610a3792919061394e565b60405160208183030381529060405292505050919050565b610a6a838383604051806020016040528060008152506110bb565b505050565b6000610a79610780565b8210610aba576040517f08c379a0000000000000000000000000000000000000000000000000000000008152600401610ab190613ccc565b60405180910390fd5b60088281548110610af4577f4e487b7100000000000000000000000000000000000000000000000000000000600052603260045260246000fd5b90600052602060002001549050919050565b610b0e6116bf565b73ffffffffffffffffffffffffffffffffffffffff16610b2c610d8e565b73ffffffffffffffffffffffffffffffffffffffff1614610b82576040517f08c379a0000000000000000000000000000000000000000000000000000000008152600401610b7990613c2c565b60405180910390fd5b80600c9080519060200190610b98929190612b9a565b5050565b6000806002600084815260200190815260200160002060009054906101000a900473ffffffffffffffffffffffffffffffffffffffff169050600073ffffffffffffffffffffffffffffffffffffffff168173ffffffffffffffffffffffffffffffffffffffff161415610c45576040517f08c379a0000000000000000000000000000000000000000000000000000000008152600401610c3c90613bcc565b60405180910390fd5b80915050919050565b60008073ffffffffffffffffffffffffffffffffffffffff168273ffffffffffffffffffffffffffffffffffffffff161415610cbf576040517f08c379a0000000000000000000000000000000000000000000000000000000008152600401610cb690613bac565b60405180910390fd5b600360008373ffffffffffffffffffffffffffffffffffffffff1673ffffffffffffffffffffffffffffffffffffffff168152602001908152602001600020549050919050565b610d0e6116bf565b73ffffffffffffffffffffffffffffffffffffffff16610d2c610d8e565b73ffffffffffffffffffffffffffffffffffffffff1614610d82576040517f08c379a0000000000000000000000000000000000000000000000000000000008152600401610d7990613c2c565b60405180910390fd5b610d8c6000611d4f565b565b6000600a60009054906101000a900473ffffffffffffffffffffffffffffffffffffffff16905090565b606060018054610dc790614117565b80601f0160208091040260200160405190810160405280929190818152602001828054610df390614117565b8015610e405780601f10610e1557610100808354040283529160200191610e40565b820191906000526020600020905b815481529060010190602001808311610e2357829003601f168201915b5050505050905090565b610e526116bf565b73ffffffffffffffffffffffffffffffffffffffff168273ffffffffffffffffffffffffffffffffffffffff161415610ec0576040517f08c379a0000000000000000000000000000000000000000000000000000000008152600401610eb790613b4c565b60405180910390fd5b8060056000610ecd6116bf565b73ffffffffffffffffffffffffffffffffffffffff1673ffffffffffffffffffffffffffffffffffffffff16815260200190815260200160002060008473ffffffffffffffffffffffffffffffffffffffff1673ffffffffffffffffffffffffffffffffffffffff16815260200190815260200160002060006101000a81548160ff0219169083151502179055508173ffffffffffffffffffffffffffffffffffffffff16610f7a6116bf565b73ffffffffffffffffffffffffffffffffffffffff167f17307eab39ab6107e8899845ad3d59bd9653f200f220920489ca2b5937696c3183604051610fbf9190613a6f565b60405180910390a35050565b610fd36116bf565b73ffffffffffffffffffffffffffffffffffffffff16610ff1610d8e565b73ffffffffffffffffffffffffffffffffffffffff1614611047576040517f08c379a000000000000000000000000000000000000000000000000000000000815260040161103e90613c2c565b60405180910390fd5b61105082611653565b61108f576040517f08c379a000000000000000000000000000000000000000000000000000000000815260040161108690613c6c565b60405180910390fd5b80600b600084815260200190815260200160002090805190602001906110b6929190612b9a565b505050565b6110cc6110c66116bf565b8361186a565b61110b576040517f08c379a000000000000000000000000000000000000000000000000000000000815260040161110290613cac565b60405180910390fd5b61111784848484611e15565b50505050565b600c805461112a90614117565b80601f016020809104026020016040519081016040528092919081815260200182805461115690614117565b80156111a35780601f10611178576101008083540402835291602001916111a3565b820191906000526020600020905b81548152906001019060200180831161118657829003601f168201915b505050505081565b60606111b682611653565b6111f5576040517f08c379a00000000000000000000000000000000000000000000000000000000081526004016111ec90613c6c565b60405180910390fd5b600061129b600b6000858152602001908152602001600020805461121890614117565b80601f016020809104026020016040519081016040528092919081815260200182805461124490614117565b80156112915780601f1061126657610100808354040283529160200191611291565b820191906000526020600020905b81548152906001019060200180831161127457829003601f168201915b505050505061078d565b90506112cd6112a9826109bc565b6040516020016112b991906139a3565b604051602081830303815290604052611ba4565b6040516020016112dd91906139e6565b604051602081830303815290604052915050919050565b6112fc6116bf565b73ffffffffffffffffffffffffffffffffffffffff1661131a610d8e565b73ffffffffffffffffffffffffffffffffffffffff1614611370576040517f08c379a000000000000000000000000000000000000000000000000000000000815260040161136790613c2c565b60405180910390fd5b80600b600061137f600d611e71565b815260200190815260200160002090805190602001906113a0929190612b9a565b506113aa33611e7f565b50565b6000600560008473ffffffffffffffffffffffffffffffffffffffff1673ffffffffffffffffffffffffffffffffffffffff16815260200190815260200160002060008373ffffffffffffffffffffffffffffffffffffffff1673ffffffffffffffffffffffffffffffffffffffff16815260200190815260200160002060009054906101000a900460ff16905092915050565b600b602052806000526040600020600091509050805461146090614117565b80601f016020809104026020016040519081016040528092919081815260200182805461148c90614117565b80156114d95780601f106114ae576101008083540402835291602001916114d9565b820191906000526020600020905b8154815290600101906020018083116114bc57829003601f168201915b505050505081565b6114e96116bf565b73ffffffffffffffffffffffffffffffffffffffff16611507610d8e565b73ffffffffffffffffffffffffffffffffffffffff161461155d576040517f08c379a000000000000000000000000000000000000000000000000000000000815260040161155490613c2c565b60405180910390fd5b600073ffffffffffffffffffffffffffffffffffffffff168173ffffffffffffffffffffffffffffffffffffffff1614156115cd576040517f08c379a00000000000000000000000000000000000000000000000000000000081526004016115c490613aec565b60405180910390fd5b6115d681611d4f565b50565b60007f780e9d63000000000000000000000000000000000000000000000000000000007bffffffffffffffffffffffffffffffffffffffffffffffffffffffff1916827bffffffffffffffffffffffffffffffffffffffffffffffffffffffff1916148061164c575061164b82611f1b565b5b9050919050565b60008073ffffffffffffffffffffffffffffffffffffffff166002600084815260200190815260200160002060009054906101000a900473ffffffffffffffffffffffffffffffffffffffff1673ffffffffffffffffffffffffffffffffffffffff1614159050919050565b600033905090565b816004600083815260200190815260200160002060006101000a81548173ffffffffffffffffffffffffffffffffffffffff021916908373ffffffffffffffffffffffffffffffffffffffff160217905550808273ffffffffffffffffffffffffffffffffffffffff1661173a83610b9c565b73ffffffffffffffffffffffffffffffffffffffff167f8c5be1e5ebec7d5bd14f71427d1e84f3dd0314c0f7b2291e5b200ac8c7c3b92560405160405180910390a45050565b611788612c20565b600060208301905060405180604001604052808451815260200182815250915050919050565b6117b6612c20565b6117c1838383611ffd565b5092915050565b60606000826000015167ffffffffffffffff811115611810577f4e487b7100000000000000000000000000000000000000000000000000000000600052604160045260246000fd5b6040519080825280601f01601f1916602001820160405280156118425781602001600182028036833780820191505090505b509050600060208201905061186081856020015186600001516120c8565b8192505050919050565b600061187582611653565b6118b4576040517f08c379a00000000000000000000000000000000000000000000000000000000081526004016118ab90613b6c565b60405180910390fd5b60006118bf83610b9c565b90508073ffffffffffffffffffffffffffffffffffffffff168473ffffffffffffffffffffffffffffffffffffffff16148061192e57508373ffffffffffffffffffffffffffffffffffffffff16611916846105e3565b73ffffffffffffffffffffffffffffffffffffffff16145b8061193f575061193e81856113ad565b5b91505092915050565b8273ffffffffffffffffffffffffffffffffffffffff1661196882610b9c565b73ffffffffffffffffffffffffffffffffffffffff16146119be576040517f08c379a00000000000000000000000000000000000000000000000000000000081526004016119b590613c4c565b60405180910390fd5b600073ffffffffffffffffffffffffffffffffffffffff168273ffffffffffffffffffffffffffffffffffffffff161415611a2e576040517f08c379a0000000000000000000000000000000000000000000000000000000008152600401611a2590613b2c565b60405180910390fd5b611a39838383612147565b611a446000826116c7565b6001600360008573ffffffffffffffffffffffffffffffffffffffff1673ffffffffffffffffffffffffffffffffffffffff1681526020019081526020016000206000828254611a94919061402d565b925050819055506001600360008473ffffffffffffffffffffffffffffffffffffffff1673ffffffffffffffffffffffffffffffffffffffff1681526020019081526020016000206000828254611aeb9190613ddb565b92505081905550816002600083815260200190815260200160002060006101000a81548173ffffffffffffffffffffffffffffffffffffffff021916908373ffffffffffffffffffffffffffffffffffffffff160217905550808273ffffffffffffffffffffffffffffffffffffffff168473ffffffffffffffffffffffffffffffffffffffff167fddf252ad1be2c89b69c2b068fc378daa952ba7f163c4a11628f55a4df523b3ef60405160405180910390a4505050565b6060600082511415611bc757604051806020016040528060008152509050611d4a565b60006040518060600160405280604081526020016142c96040913990506000600360028551611bf69190613ddb565b611c009190613e31565b6004611c0c9190613fd3565b90506000602082611c1d9190613ddb565b67ffffffffffffffff811115611c5c577f4e487b7100000000000000000000000000000000000000000000000000000000600052604160045260246000fd5b6040519080825280601f01601f191660200182016040528015611c8e5781602001600182028036833780820191505090505b509050818152600183018586518101602084015b81831015611d09576003830192508251603f8160121c1685015160f81b8252600182019150603f81600c1c1685015160f81b8252600182019150603f8160061c1685015160f81b8252600182019150603f811685015160f81b825260018201915050611ca2565b600389510660018114611d235760028114611d3357611d3e565b613d3d60f01b6002830352611d3e565b603d60f81b60018303525b50505050508093505050505b919050565b6000600a60009054906101000a900473ffffffffffffffffffffffffffffffffffffffff16905081600a60006101000a81548173ffffffffffffffffffffffffffffffffffffffff021916908373ffffffffffffffffffffffffffffffffffffffff1602179055508173ffffffffffffffffffffffffffffffffffffffff168173ffffffffffffffffffffffffffffffffffffffff167f8be0079c531659141344cd1fd0a4f28419497f9722a3daafe3b4186f6b6457e060405160405180910390a35050565b611e20848484611948565b611e2c84848484612157565b611e6b576040517f08c379a0000000000000000000000000000000000000000000000000000000008152600401611e6290613acc565b60405180910390fd5b50505050565b600081600001549050919050565b611e876116bf565b73ffffffffffffffffffffffffffffffffffffffff16611ea5610d8e565b73ffffffffffffffffffffffffffffffffffffffff1614611efb576040517f08c379a0000000000000000000000000000000000000000000000000000000008152600401611ef290613c2c565b60405180910390fd5b611f0e81611f09600d611e71565b6122ee565b611f18600d61230c565b50565b60007f80ac58cd000000000000000000000000000000000000000000000000000000007bffffffffffffffffffffffffffffffffffffffffffffffffffffffff1916827bffffffffffffffffffffffffffffffffffffffffffffffffffffffff19161480611fe657507f5b5e139f000000000000000000000000000000000000000000000000000000007bffffffffffffffffffffffffffffffffffffffffffffffffffffffff1916827bffffffffffffffffffffffffffffffffffffffffffffffffffffffff1916145b80611ff65750611ff582612322565b5b9050919050565b612005612c20565b6000612023856000015186602001518660000151876020015161238c565b90508460200151836020018181525050846020015181612043919061402d565b836000018181525050846000015185602001516120609190613ddb565b8114156120775760008560000181815250506120bd565b8360000151836000015161208b9190613ddb565b8560000181815161209c919061402d565b915081815250508360000151816120b39190613ddb565b8560200181815250505b829150509392505050565b5b6020811061210757815183526020836120e29190613ddb565b92506020826120f19190613ddb565b9150602081612100919061402d565b90506120c9565b60006001826020612118919061402d565b6101006121259190613eb5565b61212f919061402d565b90508019835116818551168181178652505050505050565b6121528383836124cd565b505050565b60006121788473ffffffffffffffffffffffffffffffffffffffff166125e1565b156122e1578373ffffffffffffffffffffffffffffffffffffffff1663150b7a026121a16116bf565b8786866040518563ffffffff1660e01b81526004016121c39493929190613a23565b602060405180830381600087803b1580156121dd57600080fd5b505af192505050801561220e57506040513d601f19601f8201168201806040525081019061220b9190612f60565b60015b612291573d806000811461223e576040519150601f19603f3d011682016040523d82523d6000602084013e612243565b606091505b50600081511415612289576040517f08c379a000000000000000000000000000000000000000000000000000000000815260040161228090613acc565b60405180910390fd5b805181602001fd5b63150b7a0260e01b7bffffffffffffffffffffffffffffffffffffffffffffffffffffffff1916817bffffffffffffffffffffffffffffffffffffffffffffffffffffffff1916149150506122e6565b600190505b949350505050565b6123088282604051806020016040528060008152506125f4565b5050565b6001816000016000828254019250508190555050565b60007f01ffc9a7000000000000000000000000000000000000000000000000000000007bffffffffffffffffffffffffffffffffffffffffffffffffffffffff1916827bffffffffffffffffffffffffffffffffffffffffffffffffffffffff1916149050919050565b60008084905060008685116124b4576020851161245657600060018660206123b4919061402d565b60086123c09190613fd3565b60026123cc9190613eb5565b6123d6919061402d565b1960001b905060008186511690506000878a8a6123f39190613ddb565b6123fd919061402d565b905060008386511690505b8281146124485781861061242f578a8a6124229190613ddb565b96505050505050506124c5565b858061243a90614149565b965050838651169050612408565b8596505050505050506124c5565b60008585209050600091505b858861246e919061402d565b82116124b257600086842090508082141561248f57839450505050506124c5565b60018461249c9190613ddb565b93505081806124aa90614149565b925050612462565b505b86866124c09190613ddb565b925050505b949350505050565b6124d883838361264f565b600073ffffffffffffffffffffffffffffffffffffffff168373ffffffffffffffffffffffffffffffffffffffff16141561251b5761251681612654565b61255a565b8173ffffffffffffffffffffffffffffffffffffffff168373ffffffffffffffffffffffffffffffffffffffff161461255957612558838261269d565b5b5b600073ffffffffffffffffffffffffffffffffffffffff168273ffffffffffffffffffffffffffffffffffffffff16141561259d576125988161280a565b6125dc565b8273ffffffffffffffffffffffffffffffffffffffff168273ffffffffffffffffffffffffffffffffffffffff16146125db576125da828261294d565b5b5b505050565b600080823b905060008111915050919050565b6125fe83836129cc565b61260b6000848484612157565b61264a576040517f08c379a000000000000000000000000000000000000000000000000000000000815260040161264190613acc565b60405180910390fd5b505050565b505050565b6008805490506009600083815260200190815260200160002081905550600881908060018154018082558091505060019003906000526020600020016000909190919091505550565b600060016126aa84610c4e565b6126b4919061402d565b9050600060076000848152602001908152602001600020549050818114612799576000600660008673ffffffffffffffffffffffffffffffffffffffff1673ffffffffffffffffffffffffffffffffffffffff168152602001908152602001600020600084815260200190815260200160002054905080600660008773ffffffffffffffffffffffffffffffffffffffff1673ffffffffffffffffffffffffffffffffffffffff168152602001908152602001600020600084815260200190815260200160002081905550816007600083815260200190815260200160002081905550505b6007600084815260200190815260200160002060009055600660008573ffffffffffffffffffffffffffffffffffffffff1673ffffffffffffffffffffffffffffffffffffffff16815260200190815260200160002060008381526020019081526020016000206000905550505050565b6000600160088054905061281e919061402d565b9050600060096000848152602001908152602001600020549050600060088381548110612874577f4e487b7100000000000000000000000000000000000000000000000000000000600052603260045260246000fd5b9060005260206000200154905080600883815481106128bc577f4e487b7100000000000000000000000000000000000000000000000000000000600052603260045260246000fd5b906000526020600020018190555081600960008381526020019081526020016000208190555060096000858152602001908152602001600020600090556008805480612931577f4e487b7100000000000000000000000000000000000000000000000000000000600052603160045260246000fd5b6001900381819060005260206000200160009055905550505050565b600061295883610c4e565b905081600660008573ffffffffffffffffffffffffffffffffffffffff1673ffffffffffffffffffffffffffffffffffffffff168152602001908152602001600020600083815260200190815260200160002081905550806007600084815260200190815260200160002081905550505050565b600073ffffffffffffffffffffffffffffffffffffffff168273ffffffffffffffffffffffffffffffffffffffff161415612a3c576040517f08c379a0000000000000000000000000000000000000000000000000000000008152600401612a3390613bec565b60405180910390fd5b612a4581611653565b15612a85576040517f08c379a0000000000000000000000000000000000000000000000000000000008152600401612a7c90613b0c565b60405180910390fd5b612a9160008383612147565b6001600360008473ffffffffffffffffffffffffffffffffffffffff1673ffffffffffffffffffffffffffffffffffffffff1681526020019081526020016000206000828254612ae19190613ddb565b92505081905550816002600083815260200190815260200160002060006101000a81548173ffffffffffffffffffffffffffffffffffffffff021916908373ffffffffffffffffffffffffffffffffffffffff160217905550808273ffffffffffffffffffffffffffffffffffffffff16600073ffffffffffffffffffffffffffffffffffffffff167fddf252ad1be2c89b69c2b068fc378daa952ba7f163c4a11628f55a4df523b3ef60405160405180910390a45050565b828054612ba690614117565b90600052602060002090601f016020900481019282612bc85760008555612c0f565b82601f10612be157805160ff1916838001178555612c0f565b82800160010185558215612c0f579182015b82811115612c0e578251825591602001919060010190612bf3565b5b509050612c1c9190612c3a565b5090565b604051806040016040528060008152602001600081525090565b5b80821115612c53576000816000905550600101612c3b565b5090565b6000612c6a612c6584613d38565b613d07565b905082815260208101848484011115612c8257600080fd5b612c8d8482856140d5565b509392505050565b6000612ca8612ca384613d68565b613d07565b905082815260208101848484011115612cc057600080fd5b612ccb8482856140d5565b509392505050565b600081359050612ce28161426c565b92915050565b600081359050612cf781614283565b92915050565b600081359050612d0c8161429a565b92915050565b600081519050612d218161429a565b92915050565b600082601f830112612d3857600080fd5b8135612d48848260208601612c57565b91505092915050565b600082601f830112612d6257600080fd5b8135612d72848260208601612c95565b91505092915050565b600081359050612d8a816142b1565b92915050565b600060208284031215612da257600080fd5b6000612db084828501612cd3565b91505092915050565b60008060408385031215612dcc57600080fd5b6000612dda85828601612cd3565b9250506020612deb85828601612cd3565b9150509250929050565b600080600060608486031215612e0a57600080fd5b6000612e1886828701612cd3565b9350506020612e2986828701612cd3565b9250506040612e3a86828701612d7b565b9150509250925092565b60008060008060808587031215612e5a57600080fd5b6000612e6887828801612cd3565b9450506020612e7987828801612cd3565b9350506040612e8a87828801612d7b565b925050606085013567ffffffffffffffff811115612ea757600080fd5b612eb387828801612d27565b91505092959194509250565b60008060408385031215612ed257600080fd5b6000612ee085828601612cd3565b9250506020612ef185828601612ce8565b9150509250929050565b60008060408385031215612f0e57600080fd5b6000612f1c85828601612cd3565b9250506020612f2d85828601612d7b565b9150509250929050565b600060208284031215612f4957600080fd5b6000612f5784828501612cfd565b91505092915050565b600060208284031215612f7257600080fd5b6000612f8084828501612d12565b91505092915050565b600060208284031215612f9b57600080fd5b600082013567ffffffffffffffff811115612fb557600080fd5b612fc184828501612d51565b91505092915050565b600060208284031215612fdc57600080fd5b6000612fea84828501612d7b565b91505092915050565b6000806040838503121561300657600080fd5b600061301485828601612d7b565b925050602083013567ffffffffffffffff81111561303157600080fd5b61303d85828601612d51565b9150509250929050565b61305081614061565b82525050565b61305f81614073565b82525050565b600061307082613d98565b61307a8185613dae565b935061308a8185602086016140e4565b6130938161424e565b840191505092915050565b60006130a982613da3565b6130b38185613dbf565b93506130c38185602086016140e4565b6130cc8161424e565b840191505092915050565b60006130e282613da3565b6130ec8185613dd0565b93506130fc8185602086016140e4565b80840191505092915050565b6000613115600983613dd0565b91507f7b226e616d65223a2200000000000000000000000000000000000000000000006000830152600982019050919050565b6000613155602b83613dbf565b91507f455243373231456e756d657261626c653a206f776e657220696e646578206f7560008301527f74206f6620626f756e64730000000000000000000000000000000000000000006020830152604082019050919050565b60006131bb603283613dbf565b91507f4552433732313a207472616e7366657220746f206e6f6e20455243373231526560008301527f63656976657220696d706c656d656e74657200000000000000000000000000006020830152604082019050919050565b6000613221602683613dbf565b91507f4f776e61626c653a206e6577206f776e657220697320746865207a65726f206160008301527f64647265737300000000000000000000000000000000000000000000000000006020830152604082019050919050565b6000613287601c83613dbf565b91507f4552433732313a20746f6b656e20616c7265616479206d696e746564000000006000830152602082019050919050565b60006132c7602483613dbf565b91507f4552433732313a207472616e7366657220746f20746865207a65726f2061646460008301527f72657373000000000000000000000000000000000000000000000000000000006020830152604082019050919050565b600061332d601983613dbf565b91507f4552433732313a20617070726f766520746f2063616c6c6572000000000000006000830152602082019050919050565b600061336d602c83613dbf565b91507f4552433732313a206f70657261746f7220717565727920666f72206e6f6e657860008301527f697374656e7420746f6b656e00000000000000000000000000000000000000006020830152604082019050919050565b60006133d3600983613dd0565b91507f53686170655377617000000000000000000000000000000000000000000000006000830152600982019050919050565b6000613413603883613dbf565b91507f4552433732313a20617070726f76652063616c6c6572206973206e6f74206f7760008301527f6e6572206e6f7220617070726f76656420666f7220616c6c00000000000000006020830152604082019050919050565b6000613479602a83613dbf565b91507f4552433732313a2062616c616e636520717565727920666f7220746865207a6560008301527f726f2061646472657373000000000000000000000000000000000000000000006020830152604082019050919050565b60006134df602983613dbf565b91507f4552433732313a206f776e657220717565727920666f72206e6f6e657869737460008301527f656e7420746f6b656e00000000000000000000000000000000000000000000006020830152604082019050919050565b6000613545600283613dd0565b91507f227d0000000000000000000000000000000000000000000000000000000000006000830152600282019050919050565b6000613585602083613dbf565b91507f4552433732313a206d696e7420746f20746865207a65726f20616464726573736000830152602082019050919050565b60006135c5602c83613dbf565b91507f4552433732313a20617070726f76656420717565727920666f72206e6f6e657860008301527f697374656e7420746f6b656e00000000000000000000000000000000000000006020830152604082019050919050565b600061362b602083613dbf565b91507f4f776e61626c653a2063616c6c6572206973206e6f7420746865206f776e65726000830152602082019050919050565b600061366b602983613dbf565b91507f4552433732313a207472616e73666572206f6620746f6b656e2074686174206960008301527f73206e6f74206f776e00000000000000000000000000000000000000000000006020830152604082019050919050565b60006136d1602f83613dbf565b91507f4552433732314d657461646174613a2055524920717565727920666f72206e6f60008301527f6e6578697374656e7420746f6b656e00000000000000000000000000000000006020830152604082019050919050565b6000613737602183613dbf565b91507f4552433732313a20617070726f76616c20746f2063757272656e74206f776e6560008301527f72000000000000000000000000000000000000000000000000000000000000006020830152604082019050919050565b600061379d601d83613dd0565b91507f646174613a6170706c69636174696f6e2f6a736f6e3b6261736536342c0000006000830152601d82019050919050565b60006137dd605583613dd0565b91507f222c20226465736372697074696f6e223a225368617065204e4654732077686f60008301527f736520636f6c6f72732063616e206265206368616e676564222c20226174747260208301527f696275746573223a22222c2022696d616765223a2200000000000000000000006040830152605582019050919050565b6000613869603183613dbf565b91507f4552433732313a207472616e736665722063616c6c6572206973206e6f74206f60008301527f776e6572206e6f7220617070726f7665640000000000000000000000000000006020830152604082019050919050565b60006138cf602c83613dbf565b91507f455243373231456e756d657261626c653a20676c6f62616c20696e646578206f60008301527f7574206f6620626f756e647300000000000000000000000000000000000000006020830152604082019050919050565b613931816140cb565b82525050565b600061394382846130d7565b915081905092915050565b600061395a82856130d7565b915061396682846130d7565b91508190509392505050565b600061397e82866130d7565b915061398a82856130d7565b915061399682846130d7565b9150819050949350505050565b60006139ae82613108565b91506139b9826133c6565b91506139c4826137d0565b91506139d082846130d7565b91506139db82613538565b915081905092915050565b60006139f182613790565b91506139fd82846130d7565b915081905092915050565b6000602082019050613a1d6000830184613047565b92915050565b6000608082019050613a386000830187613047565b613a456020830186613047565b613a526040830185613928565b8181036060830152613a648184613065565b905095945050505050565b6000602082019050613a846000830184613056565b92915050565b60006020820190508181036000830152613aa4818461309e565b905092915050565b60006020820190508181036000830152613ac581613148565b9050919050565b60006020820190508181036000830152613ae5816131ae565b9050919050565b60006020820190508181036000830152613b0581613214565b9050919050565b60006020820190508181036000830152613b258161327a565b9050919050565b60006020820190508181036000830152613b45816132ba565b9050919050565b60006020820190508181036000830152613b6581613320565b9050919050565b60006020820190508181036000830152613b8581613360565b9050919050565b60006020820190508181036000830152613ba581613406565b9050919050565b60006020820190508181036000830152613bc58161346c565b9050919050565b60006020820190508181036000830152613be5816134d2565b9050919050565b60006020820190508181036000830152613c0581613578565b9050919050565b60006020820190508181036000830152613c25816135b8565b9050919050565b60006020820190508181036000830152613c458161361e565b9050919050565b60006020820190508181036000830152613c658161365e565b9050919050565b60006020820190508181036000830152613c85816136c4565b9050919050565b60006020820190508181036000830152613ca58161372a565b9050919050565b60006020820190508181036000830152613cc58161385c565b9050919050565b60006020820190508181036000830152613ce5816138c2565b9050919050565b6000602082019050613d016000830184613928565b92915050565b6000604051905081810181811067ffffffffffffffff82111715613d2e57613d2d61421f565b5b8060405250919050565b600067ffffffffffffffff821115613d5357613d5261421f565b5b601f19601f8301169050602081019050919050565b600067ffffffffffffffff821115613d8357613d8261421f565b5b601f19601f8301169050602081019050919050565b600081519050919050565b600081519050919050565b600082825260208201905092915050565b600082825260208201905092915050565b600081905092915050565b6000613de6826140cb565b9150613df1836140cb565b9250827fffffffffffffffffffffffffffffffffffffffffffffffffffffffffffffffff03821115613e2657613e25614192565b5b828201905092915050565b6000613e3c826140cb565b9150613e47836140cb565b925082613e5757613e566141c1565b5b828204905092915050565b6000808291508390505b6001851115613eac57808604811115613e8857613e87614192565b5b6001851615613e975780820291505b8081029050613ea58561425f565b9450613e6c565b94509492505050565b6000613ec0826140cb565b9150613ecb836140cb565b9250613ef87fffffffffffffffffffffffffffffffffffffffffffffffffffffffffffffffff8484613f00565b905092915050565b600082613f105760019050613fcc565b81613f1e5760009050613fcc565b8160018114613f345760028114613f3e57613f6d565b6001915050613fcc565b60ff841115613f5057613f4f614192565b5b8360020a915084821115613f6757613f66614192565b5b50613fcc565b5060208310610133831016604e8410600b8410161715613fa25782820a905083811115613f9d57613f9c614192565b5b613fcc565b613faf8484846001613e62565b92509050818404811115613fc657613fc5614192565b5b81810290505b9392505050565b6000613fde826140cb565b9150613fe9836140cb565b9250817fffffffffffffffffffffffffffffffffffffffffffffffffffffffffffffffff048311821515161561402257614021614192565b5b828202905092915050565b6000614038826140cb565b9150614043836140cb565b92508282101561405657614055614192565b5b828203905092915050565b600061406c826140ab565b9050919050565b60008115159050919050565b60007fffffffff0000000000000000000000000000000000000000000000000000000082169050919050565b600073ffffffffffffffffffffffffffffffffffffffff82169050919050565b6000819050919050565b82818337600083830152505050565b60005b838110156141025780820151818401526020810190506140e7565b83811115614111576000848401525b50505050565b6000600282049050600182168061412f57607f821691505b60208210811415614143576141426141f0565b5b50919050565b6000614154826140cb565b91507fffffffffffffffffffffffffffffffffffffffffffffffffffffffffffffffff82141561418757614186614192565b5b600182019050919050565b7f4e487b7100000000000000000000000000000000000000000000000000000000600052601160045260246000fd5b7f4e487b7100000000000000000000000000000000000000000000000000000000600052601260045260246000fd5b7f4e487b7100000000000000000000000000000000000000000000000000000000600052602260045260246000fd5b7f4e487b7100000000000000000000000000000000000000000000000000000000600052604160045260246000fd5b6000601f19601f8301169050919050565b60008160011c9050919050565b61427581614061565b811461428057600080fd5b50565b61428c81614073565b811461429757600080fd5b50565b6142a38161407f565b81146142ae57600080fd5b50565b6142ba816140cb565b81146142c557600080fd5b5056fe4142434445464748494a4b4c4d4e4f505152535455565758595a6162636465666768696a6b6c6d6e6f707172737475767778797a303132333435363738392b2fa26469706673582212207f165631c2e011e53593e93df32820c8e63bbd41eb65330b1fa5d35472b9157564736f6c63430008000033",
  "immutableReferences": {},
  "source": "// SPDX-License-Identifier: MIT\npragma solidity >=0.4.22 <0.9.0;\n\nimport \"@openzeppelin/contracts/token/ERC721/ERC721.sol\";\nimport \"@openzeppelin/contracts/access/Ownable.sol\";\nimport \"@openzeppelin/contracts/utils/Counters.sol\";\nimport \"@openzeppelin/contracts/token/ERC721/extensions/ERC721Enumerable.sol\";\nimport \"base64-sol/base64.sol\";\nimport \"./strings.sol\";\n\ncontract ShapeSwap is ERC721, ERC721Enumerable, Ownable {\n    // TokenIDs mapped to color params\n    mapping(uint256 => string) public tokenIdToColor;\n    // base64 encoded SVG\n    string public svg;\n    \n    using Counters for Counters.Counter;\n    using strings for *;\n\n    Counters.Counter private _tokenIdCounter;\n    \n\n    constructor() ERC721(\"ShapeSwap\", \"Shape\") {}\n\n    function safeMint(address to) private onlyOwner {\n        _safeMint(to, _tokenIdCounter.current());\n        _tokenIdCounter.increment();\n    }\n\n    function initSvg(string memory s) public onlyOwner {\n        svg = s;\n    }\n\n    function mintShape(string memory color) public onlyOwner {\n        tokenIdToColor[_tokenIdCounter.current()] = color;\n        safeMint(msg.sender);\n    }\n\n    function updateColor(uint256 tokenId, string memory color) public onlyOwner {\n        require(\n            _exists(tokenId),\n            \"ERC721Metadata: URI query for nonexistent token\"\n        );\n        tokenIdToColor[tokenId] = color;\n    }\n\n    // You could also just upload the raw SVG and have solildity convert it!\n    function svgToImageURI(string memory s) public pure returns (string memory) {\n        // example:\n        // '<svg width=\"500\" height=\"500\" viewBox=\"0 0 285 350\" fill=\"none\" xmlns=\"http://www.w3.org/2000/svg\"><path fill=\"black\" d=\"M150,0,L75,200,L225,200,Z\"></path></svg>'\n        // would return \"\"\n        string memory baseURL = \"data:image/svg+xml;base64,\";\n        string memory svgBase64Encoded = Base64.encode(bytes(string(abi.encodePacked(s))));\n        return string(abi.encodePacked(baseURL,svgBase64Encoded));\n    }\n\n    // You could also just upload the raw SVG and have solildity convert it!\n    function generateSvgFrom(string memory color) public view returns (string memory) {\n        strings.slice memory svgSecondHalf = svg.toSlice();\n        strings.slice memory svgFirstHalf = svgSecondHalf.split(\"{param}\".toSlice());\n        return string(abi.encodePacked(svgFirstHalf.toString(), color, svgSecondHalf.toString()));\n    }\n\n    function tokenURI(uint256 tokenId)\n        public\n        view\n        virtual\n        override\n        returns (string memory)\n    {\n        require(\n            _exists(tokenId),\n            \"ERC721Metadata: URI query for nonexistent token\"\n        );\n        string memory genSvg = generateSvgFrom(tokenIdToColor[tokenId]);\n        return string(\n                abi.encodePacked(\n                    \"data:application/json;base64,\",\n                    Base64.encode(\n                        bytes(\n                            abi.encodePacked(\n                                '{\"name\":\"',\n                                \"ShapeSwap\", // You can add whatever name here\n                                '\", \"description\":\"Shape NFTs whose colors can be changed\", \"attributes\":\"\", \"image\":\"', svgToImageURI(genSvg),'\"}'\n                            )\n                        )\n                    )\n                )\n            );\n    }\n\n    // The following functions are overrides required by Solidity.\n\n    function _beforeTokenTransfer(address from, address to, uint256 tokenId)\n        internal\n        override(ERC721, ERC721Enumerable)\n    {\n        super._beforeTokenTransfer(from, to, tokenId);\n    }\n\n    function supportsInterface(bytes4 interfaceId)\n        public\n        view\n        override(ERC721, ERC721Enumerable)\n        returns (bool)\n    {\n        return super.supportsInterface(interfaceId);\n    }\n}\n",
  "sourcePath": "/home/rampeylabs/Documents/solidity-experiments/nft/contracts/ShapeSwap.sol",
  "compiler": {
    "name": "solc",
    "version": "0.8.0+commit.c7dfd78e.Emscripten.clang"
  },
  "schemaVersion": "3.4.3",
  "updatedAt": "2021-09-06T20:43:23.182Z",
  "networkType": "ethereum",
  "devdoc": {
    "kind": "dev",
    "methods": {
      "approve(address,uint256)": {
        "details": "See {IERC721-approve}."
      },
      "balanceOf(address)": {
        "details": "See {IERC721-balanceOf}."
      },
      "getApproved(uint256)": {
        "details": "See {IERC721-getApproved}."
      },
      "isApprovedForAll(address,address)": {
        "details": "See {IERC721-isApprovedForAll}."
      },
      "name()": {
        "details": "See {IERC721Metadata-name}."
      },
      "owner()": {
        "details": "Returns the address of the current owner."
      },
      "ownerOf(uint256)": {
        "details": "See {IERC721-ownerOf}."
      },
      "renounceOwnership()": {
        "details": "Leaves the contract without owner. It will not be possible to call `onlyOwner` functions anymore. Can only be called by the current owner. NOTE: Renouncing ownership will leave the contract without an owner, thereby removing any functionality that is only available to the owner."
      },
      "safeTransferFrom(address,address,uint256)": {
        "details": "See {IERC721-safeTransferFrom}."
      },
      "safeTransferFrom(address,address,uint256,bytes)": {
        "details": "See {IERC721-safeTransferFrom}."
      },
      "setApprovalForAll(address,bool)": {
        "details": "See {IERC721-setApprovalForAll}."
      },
      "symbol()": {
        "details": "See {IERC721Metadata-symbol}."
      },
      "tokenByIndex(uint256)": {
        "details": "See {IERC721Enumerable-tokenByIndex}."
      },
      "tokenOfOwnerByIndex(address,uint256)": {
        "details": "See {IERC721Enumerable-tokenOfOwnerByIndex}."
      },
      "tokenURI(uint256)": {
        "details": "See {IERC721Metadata-tokenURI}."
      },
      "totalSupply()": {
        "details": "See {IERC721Enumerable-totalSupply}."
      },
      "transferFrom(address,address,uint256)": {
        "details": "See {IERC721-transferFrom}."
      },
      "transferOwnership(address)": {
        "details": "Transfers ownership of the contract to a new account (`newOwner`). Can only be called by the current owner."
      }
    },
    "version": 1
  },
  "userdoc": {
    "kind": "user",
    "methods": {},
    "version": 1
  }
}