{
  "contractName": "ShapeSwap",
  "abi": [
    {
      "inputs": [],
      "stateMutability": "nonpayable",
      "type": "constructor"
    },
    {
      "anonymous": false,
      "inputs": [
        {
          "indexed": true,
          "internalType": "address",
          "name": "owner",
          "type": "address"
        },
        {
          "indexed": true,
          "internalType": "address",
          "name": "approved",
          "type": "address"
        },
        {
          "indexed": true,
          "internalType": "uint256",
          "name": "tokenId",
          "type": "uint256"
        }
      ],
      "name": "Approval",
      "type": "event"
    },
    {
      "anonymous": false,
      "inputs": [
        {
          "indexed": true,
          "internalType": "address",
          "name": "owner",
          "type": "address"
        },
        {
          "indexed": true,
          "internalType": "address",
          "name": "operator",
          "type": "address"
        },
        {
          "indexed": false,
          "internalType": "bool",
          "name": "approved",
          "type": "bool"
        }
      ],
      "name": "ApprovalForAll",
      "type": "event"
    },
    {
      "anonymous": false,
      "inputs": [
        {
          "indexed": true,
          "internalType": "address",
          "name": "previousOwner",
          "type": "address"
        },
        {
          "indexed": true,
          "internalType": "address",
          "name": "newOwner",
          "type": "address"
        }
      ],
      "name": "OwnershipTransferred",
      "type": "event"
    },
    {
      "anonymous": false,
      "inputs": [
        {
          "indexed": true,
          "internalType": "address",
          "name": "from",
          "type": "address"
        },
        {
          "indexed": true,
          "internalType": "address",
          "name": "to",
          "type": "address"
        },
        {
          "indexed": true,
          "internalType": "uint256",
          "name": "tokenId",
          "type": "uint256"
        }
      ],
      "name": "Transfer",
      "type": "event"
    },
    {
      "inputs": [
        {
          "internalType": "address",
          "name": "to",
          "type": "address"
        },
        {
          "internalType": "uint256",
          "name": "tokenId",
          "type": "uint256"
        }
      ],
      "name": "approve",
      "outputs": [],
      "stateMutability": "nonpayable",
      "type": "function"
    },
    {
      "inputs": [
        {
          "internalType": "address",
          "name": "owner",
          "type": "address"
        }
      ],
      "name": "balanceOf",
      "outputs": [
        {
          "internalType": "uint256",
          "name": "",
          "type": "uint256"
        }
      ],
      "stateMutability": "view",
      "type": "function",
      "constant": true
    },
    {
      "inputs": [
        {
          "internalType": "uint256",
          "name": "tokenId",
          "type": "uint256"
        }
      ],
      "name": "getApproved",
      "outputs": [
        {
          "internalType": "address",
          "name": "",
          "type": "address"
        }
      ],
      "stateMutability": "view",
      "type": "function",
      "constant": true
    },
    {
      "inputs": [
        {
          "internalType": "address",
          "name": "owner",
          "type": "address"
        },
        {
          "internalType": "address",
          "name": "operator",
          "type": "address"
        }
      ],
      "name": "isApprovedForAll",
      "outputs": [
        {
          "internalType": "bool",
          "name": "",
          "type": "bool"
        }
      ],
      "stateMutability": "view",
      "type": "function",
      "constant": true
    },
    {
      "inputs": [],
      "name": "name",
      "outputs": [
        {
          "internalType": "string",
          "name": "",
          "type": "string"
        }
      ],
      "stateMutability": "view",
      "type": "function",
      "constant": true
    },
    {
      "inputs": [],
      "name": "owner",
      "outputs": [
        {
          "internalType": "address",
          "name": "",
          "type": "address"
        }
      ],
      "stateMutability": "view",
      "type": "function",
      "constant": true
    },
    {
      "inputs": [
        {
          "internalType": "uint256",
          "name": "tokenId",
          "type": "uint256"
        }
      ],
      "name": "ownerOf",
      "outputs": [
        {
          "internalType": "address",
          "name": "",
          "type": "address"
        }
      ],
      "stateMutability": "view",
      "type": "function",
      "constant": true
    },
    {
      "inputs": [],
      "name": "renounceOwnership",
      "outputs": [],
      "stateMutability": "nonpayable",
      "type": "function"
    },
    {
      "inputs": [
        {
          "internalType": "address",
          "name": "from",
          "type": "address"
        },
        {
          "internalType": "address",
          "name": "to",
          "type": "address"
        },
        {
          "internalType": "uint256",
          "name": "tokenId",
          "type": "uint256"
        }
      ],
      "name": "safeTransferFrom",
      "outputs": [],
      "stateMutability": "nonpayable",
      "type": "function"
    },
    {
      "inputs": [
        {
          "internalType": "address",
          "name": "from",
          "type": "address"
        },
        {
          "internalType": "address",
          "name": "to",
          "type": "address"
        },
        {
          "internalType": "uint256",
          "name": "tokenId",
          "type": "uint256"
        },
        {
          "internalType": "bytes",
          "name": "_data",
          "type": "bytes"
        }
      ],
      "name": "safeTransferFrom",
      "outputs": [],
      "stateMutability": "nonpayable",
      "type": "function"
    },
    {
      "inputs": [
        {
          "internalType": "address",
          "name": "operator",
          "type": "address"
        },
        {
          "internalType": "bool",
          "name": "approved",
          "type": "bool"
        }
      ],
      "name": "setApprovalForAll",
      "outputs": [],
      "stateMutability": "nonpayable",
      "type": "function"
    },
    {
      "inputs": [],
      "name": "symbol",
      "outputs": [
        {
          "internalType": "string",
          "name": "",
          "type": "string"
        }
      ],
      "stateMutability": "view",
      "type": "function",
      "constant": true
    },
    {
      "inputs": [
        {
          "internalType": "uint256",
          "name": "index",
          "type": "uint256"
        }
      ],
      "name": "tokenByIndex",
      "outputs": [
        {
          "internalType": "uint256",
          "name": "",
          "type": "uint256"
        }
      ],
      "stateMutability": "view",
      "type": "function",
      "constant": true
    },
    {
      "inputs": [
        {
          "internalType": "uint256",
          "name": "",
          "type": "uint256"
        }
      ],
      "name": "tokenIdToSvg",
      "outputs": [
        {
          "internalType": "string",
          "name": "",
          "type": "string"
        }
      ],
      "stateMutability": "view",
      "type": "function",
      "constant": true
    },
    {
      "inputs": [
        {
          "internalType": "address",
          "name": "owner",
          "type": "address"
        },
        {
          "internalType": "uint256",
          "name": "index",
          "type": "uint256"
        }
      ],
      "name": "tokenOfOwnerByIndex",
      "outputs": [
        {
          "internalType": "uint256",
          "name": "",
          "type": "uint256"
        }
      ],
      "stateMutability": "view",
      "type": "function",
      "constant": true
    },
    {
      "inputs": [],
      "name": "totalSupply",
      "outputs": [
        {
          "internalType": "uint256",
          "name": "",
          "type": "uint256"
        }
      ],
      "stateMutability": "view",
      "type": "function",
      "constant": true
    },
    {
      "inputs": [
        {
          "internalType": "address",
          "name": "from",
          "type": "address"
        },
        {
          "internalType": "address",
          "name": "to",
          "type": "address"
        },
        {
          "internalType": "uint256",
          "name": "tokenId",
          "type": "uint256"
        }
      ],
      "name": "transferFrom",
      "outputs": [],
      "stateMutability": "nonpayable",
      "type": "function"
    },
    {
      "inputs": [
        {
          "internalType": "address",
          "name": "newOwner",
          "type": "address"
        }
      ],
      "name": "transferOwnership",
      "outputs": [],
      "stateMutability": "nonpayable",
      "type": "function"
    },
    {
      "inputs": [
        {
          "internalType": "string",
          "name": "svg",
          "type": "string"
        }
      ],
      "name": "mintShape",
      "outputs": [],
      "stateMutability": "nonpayable",
      "type": "function"
    },
    {
      "inputs": [
        {
          "internalType": "string",
          "name": "s",
          "type": "string"
        }
      ],
      "name": "svgToImageURI",
      "outputs": [
        {
          "internalType": "string",
          "name": "",
          "type": "string"
        }
      ],
      "stateMutability": "pure",
      "type": "function",
      "constant": true
    },
    {
      "inputs": [
        {
          "internalType": "uint256",
          "name": "tokenId",
          "type": "uint256"
        }
      ],
      "name": "tokenURI",
      "outputs": [
        {
          "internalType": "string",
          "name": "",
          "type": "string"
        }
      ],
      "stateMutability": "view",
      "type": "function",
      "constant": true
    },
    {
      "inputs": [
        {
          "internalType": "bytes4",
          "name": "interfaceId",
          "type": "bytes4"
        }
      ],
      "name": "supportsInterface",
      "outputs": [
        {
          "internalType": "bool",
          "name": "",
          "type": "bool"
        }
      ],
      "stateMutability": "view",
      "type": "function",
      "constant": true
    }
  ],
  "bytecode": "0x60806040523480156200001157600080fd5b506040518060400160405280600981526020017f53686170655377617000000000000000000000000000000000000000000000008152506040518060400160405280600581526020017f5368617065000000000000000000000000000000000000000000000000000000815250816000908051906020019062000096929190620001a6565b508060019080519060200190620000af929190620001a6565b505050620000d2620000c6620000d860201b60201c565b620000e060201b60201c565b620002bb565b600033905090565b6000600a60009054906101000a900473ffffffffffffffffffffffffffffffffffffffff16905081600a60006101000a81548173ffffffffffffffffffffffffffffffffffffffff021916908373ffffffffffffffffffffffffffffffffffffffff1602179055508173ffffffffffffffffffffffffffffffffffffffff168173ffffffffffffffffffffffffffffffffffffffff167f8be0079c531659141344cd1fd0a4f28419497f9722a3daafe3b4186f6b6457e060405160405180910390a35050565b828054620001b49062000256565b90600052602060002090601f016020900481019282620001d8576000855562000224565b82601f10620001f357805160ff191683800117855562000224565b8280016001018555821562000224579182015b828111156200022357825182559160200191906001019062000206565b5b50905062000233919062000237565b5090565b5b808211156200025257600081600090555060010162000238565b5090565b600060028204905060018216806200026f57607f821691505b602082108114156200028657620002856200028c565b5b50919050565b7f4e487b7100000000000000000000000000000000000000000000000000000000600052602260045260246000fd5b61394b80620002cb6000396000f3fe608060405234801561001057600080fd5b50600436106101425760003560e01c806370a08231116100b8578063a22cb4651161007c578063a22cb4651461039d578063b88d4fde146103b9578063c87b56dd146103d5578063d6037bfd14610405578063e985e9c514610421578063f2fde38b1461045157610142565b806370a08231146102f7578063715018a6146103275780638da5cb5b1461033157806395d89b411461034f578063964a7b251461036d57610142565b806323b872dd1161010a57806323b872dd146101ff5780632f745c591461021b57806330d871c61461024b57806342842e0e1461027b5780634f6ccce7146102975780636352211e146102c757610142565b806301ffc9a71461014757806306fdde0314610177578063081812fc14610195578063095ea7b3146101c557806318160ddd146101e1575b600080fd5b610161600480360381019061015c9190612790565b61046d565b60405161016e9190613243565b60405180910390f35b61017f61047f565b60405161018c919061325e565b60405180910390f35b6101af60048036038101906101aa9190612823565b610511565b6040516101bc91906131dc565b60405180910390f35b6101df60048036038101906101da9190612754565b610596565b005b6101e96106ae565b6040516101f691906134c0565b60405180910390f35b6102196004803603810190610214919061264e565b6106bb565b005b61023560048036038101906102309190612754565b61071b565b60405161024291906134c0565b60405180910390f35b610265600480360381019061026091906127e2565b6107c0565b604051610272919061325e565b60405180910390f35b6102956004803603810190610290919061264e565b610853565b005b6102b160048036038101906102ac9190612823565b610873565b6040516102be91906134c0565b60405180910390f35b6102e160048036038101906102dc9190612823565b61090a565b6040516102ee91906131dc565b60405180910390f35b610311600480360381019061030c91906125e9565b6109bc565b60405161031e91906134c0565b60405180910390f35b61032f610a74565b005b610339610afc565b60405161034691906131dc565b60405180910390f35b610357610b26565b604051610364919061325e565b60405180910390f35b61038760048036038101906103829190612823565b610bb8565b604051610394919061325e565b60405180910390f35b6103b760048036038101906103b29190612718565b610c58565b005b6103d360048036038101906103ce919061269d565b610dd9565b005b6103ef60048036038101906103ea9190612823565b610e3b565b6040516103fc919061325e565b60405180910390f35b61041f600480360381019061041a91906127e2565b610f7c565b005b61043b60048036038101906104369190612612565b611035565b6040516104489190613243565b60405180910390f35b61046b600480360381019061046691906125e9565b6110c9565b005b6000610478826111c1565b9050919050565b60606000805461048e9061377a565b80601f01602080910402602001604051908101604052809291908181526020018280546104ba9061377a565b80156105075780601f106104dc57610100808354040283529160200191610507565b820191906000526020600020905b8154815290600101906020018083116104ea57829003601f168201915b5050505050905090565b600061051c8261123b565b61055b576040517f08c379a0000000000000000000000000000000000000000000000000000000008152600401610552906133e0565b60405180910390fd5b6004600083815260200190815260200160002060009054906101000a900473ffffffffffffffffffffffffffffffffffffffff169050919050565b60006105a18261090a565b90508073ffffffffffffffffffffffffffffffffffffffff168373ffffffffffffffffffffffffffffffffffffffff161415610612576040517f08c379a000000000000000000000000000000000000000000000000000000000815260040161060990613460565b60405180910390fd5b8073ffffffffffffffffffffffffffffffffffffffff166106316112a7565b73ffffffffffffffffffffffffffffffffffffffff161480610660575061065f8161065a6112a7565b611035565b5b61069f576040517f08c379a000000000000000000000000000000000000000000000000000000000815260040161069690613360565b60405180910390fd5b6106a983836112af565b505050565b6000600880549050905090565b6106cc6106c66112a7565b82611368565b61070b576040517f08c379a000000000000000000000000000000000000000000000000000000000815260040161070290613480565b60405180910390fd5b610716838383611446565b505050565b6000610726836109bc565b8210610767576040517f08c379a000000000000000000000000000000000000000000000000000000000815260040161075e90613280565b60405180910390fd5b600660008473ffffffffffffffffffffffffffffffffffffffff1673ffffffffffffffffffffffffffffffffffffffff168152602001908152602001600020600083815260200190815260200160002054905092915050565b606060006040518060400160405280601a81526020017f646174613a696d6167652f7376672b786d6c3b6261736536342c0000000000008152509050600061082684604051602001610812919061313c565b6040516020818303038152906040526116a2565b9050818160405160200161083b929190613153565b60405160208183030381529060405292505050919050565b61086e83838360405180602001604052806000815250610dd9565b505050565b600061087d6106ae565b82106108be576040517f08c379a00000000000000000000000000000000000000000000000000000000081526004016108b5906134a0565b60405180910390fd5b600882815481106108f8577f4e487b7100000000000000000000000000000000000000000000000000000000600052603260045260246000fd5b90600052602060002001549050919050565b6000806002600084815260200190815260200160002060009054906101000a900473ffffffffffffffffffffffffffffffffffffffff169050600073ffffffffffffffffffffffffffffffffffffffff168173ffffffffffffffffffffffffffffffffffffffff1614156109b3576040517f08c379a00000000000000000000000000000000000000000000000000000000081526004016109aa906133a0565b60405180910390fd5b80915050919050565b60008073ffffffffffffffffffffffffffffffffffffffff168273ffffffffffffffffffffffffffffffffffffffff161415610a2d576040517f08c379a0000000000000000000000000000000000000000000000000000000008152600401610a2490613380565b60405180910390fd5b600360008373ffffffffffffffffffffffffffffffffffffffff1673ffffffffffffffffffffffffffffffffffffffff168152602001908152602001600020549050919050565b610a7c6112a7565b73ffffffffffffffffffffffffffffffffffffffff16610a9a610afc565b73ffffffffffffffffffffffffffffffffffffffff1614610af0576040517f08c379a0000000000000000000000000000000000000000000000000000000008152600401610ae790613400565b60405180910390fd5b610afa600061184d565b565b6000600a60009054906101000a900473ffffffffffffffffffffffffffffffffffffffff16905090565b606060018054610b359061377a565b80601f0160208091040260200160405190810160405280929190818152602001828054610b619061377a565b8015610bae5780601f10610b8357610100808354040283529160200191610bae565b820191906000526020600020905b815481529060010190602001808311610b9157829003601f168201915b5050505050905090565b600b6020528060005260406000206000915090508054610bd79061377a565b80601f0160208091040260200160405190810160405280929190818152602001828054610c039061377a565b8015610c505780601f10610c2557610100808354040283529160200191610c50565b820191906000526020600020905b815481529060010190602001808311610c3357829003601f168201915b505050505081565b610c606112a7565b73ffffffffffffffffffffffffffffffffffffffff168273ffffffffffffffffffffffffffffffffffffffff161415610cce576040517f08c379a0000000000000000000000000000000000000000000000000000000008152600401610cc590613320565b60405180910390fd5b8060056000610cdb6112a7565b73ffffffffffffffffffffffffffffffffffffffff1673ffffffffffffffffffffffffffffffffffffffff16815260200190815260200160002060008473ffffffffffffffffffffffffffffffffffffffff1673ffffffffffffffffffffffffffffffffffffffff16815260200190815260200160002060006101000a81548160ff0219169083151502179055508173ffffffffffffffffffffffffffffffffffffffff16610d886112a7565b73ffffffffffffffffffffffffffffffffffffffff167f17307eab39ab6107e8899845ad3d59bd9653f200f220920489ca2b5937696c3183604051610dcd9190613243565b60405180910390a35050565b610dea610de46112a7565b83611368565b610e29576040517f08c379a0000000000000000000000000000000000000000000000000000000008152600401610e2090613480565b60405180910390fd5b610e3584848484611913565b50505050565b6060610e468261123b565b610e85576040517f08c379a0000000000000000000000000000000000000000000000000000000008152600401610e7c90613440565b60405180910390fd5b6000600b60008481526020019081526020016000208054610ea59061377a565b80601f0160208091040260200160405190810160405280929190818152602001828054610ed19061377a565b8015610f1e5780601f10610ef357610100808354040283529160200191610f1e565b820191906000526020600020905b815481529060010190602001808311610f0157829003601f168201915b50505050509050610f55610f31826107c0565b604051602001610f419190613177565b6040516020818303038152906040526116a2565b604051602001610f6591906131ba565b604051602081830303815290604052915050919050565b610f846112a7565b73ffffffffffffffffffffffffffffffffffffffff16610fa2610afc565b73ffffffffffffffffffffffffffffffffffffffff1614610ff8576040517f08c379a0000000000000000000000000000000000000000000000000000000008152600401610fef90613400565b60405180910390fd5b80600b6000611007600c61196f565b8152602001908152602001600020908051906020019061102892919061240d565b506110323361197d565b50565b6000600560008473ffffffffffffffffffffffffffffffffffffffff1673ffffffffffffffffffffffffffffffffffffffff16815260200190815260200160002060008373ffffffffffffffffffffffffffffffffffffffff1673ffffffffffffffffffffffffffffffffffffffff16815260200190815260200160002060009054906101000a900460ff16905092915050565b6110d16112a7565b73ffffffffffffffffffffffffffffffffffffffff166110ef610afc565b73ffffffffffffffffffffffffffffffffffffffff1614611145576040517f08c379a000000000000000000000000000000000000000000000000000000000815260040161113c90613400565b60405180910390fd5b600073ffffffffffffffffffffffffffffffffffffffff168173ffffffffffffffffffffffffffffffffffffffff1614156111b5576040517f08c379a00000000000000000000000000000000000000000000000000000000081526004016111ac906132c0565b60405180910390fd5b6111be8161184d565b50565b60007f780e9d63000000000000000000000000000000000000000000000000000000007bffffffffffffffffffffffffffffffffffffffffffffffffffffffff1916827bffffffffffffffffffffffffffffffffffffffffffffffffffffffff19161480611234575061123382611a19565b5b9050919050565b60008073ffffffffffffffffffffffffffffffffffffffff166002600084815260200190815260200160002060009054906101000a900473ffffffffffffffffffffffffffffffffffffffff1673ffffffffffffffffffffffffffffffffffffffff1614159050919050565b600033905090565b816004600083815260200190815260200160002060006101000a81548173ffffffffffffffffffffffffffffffffffffffff021916908373ffffffffffffffffffffffffffffffffffffffff160217905550808273ffffffffffffffffffffffffffffffffffffffff166113228361090a565b73ffffffffffffffffffffffffffffffffffffffff167f8c5be1e5ebec7d5bd14f71427d1e84f3dd0314c0f7b2291e5b200ac8c7c3b92560405160405180910390a45050565b60006113738261123b565b6113b2576040517f08c379a00000000000000000000000000000000000000000000000000000000081526004016113a990613340565b60405180910390fd5b60006113bd8361090a565b90508073ffffffffffffffffffffffffffffffffffffffff168473ffffffffffffffffffffffffffffffffffffffff16148061142c57508373ffffffffffffffffffffffffffffffffffffffff1661141484610511565b73ffffffffffffffffffffffffffffffffffffffff16145b8061143d575061143c8185611035565b5b91505092915050565b8273ffffffffffffffffffffffffffffffffffffffff166114668261090a565b73ffffffffffffffffffffffffffffffffffffffff16146114bc576040517f08c379a00000000000000000000000000000000000000000000000000000000081526004016114b390613420565b60405180910390fd5b600073ffffffffffffffffffffffffffffffffffffffff168273ffffffffffffffffffffffffffffffffffffffff16141561152c576040517f08c379a000000000000000000000000000000000000000000000000000000000815260040161152390613300565b60405180910390fd5b611537838383611afb565b6115426000826112af565b6001600360008573ffffffffffffffffffffffffffffffffffffffff1673ffffffffffffffffffffffffffffffffffffffff16815260200190815260200160002060008282546115929190613690565b925050819055506001600360008473ffffffffffffffffffffffffffffffffffffffff1673ffffffffffffffffffffffffffffffffffffffff16815260200190815260200160002060008282546115e991906135af565b92505081905550816002600083815260200190815260200160002060006101000a81548173ffffffffffffffffffffffffffffffffffffffff021916908373ffffffffffffffffffffffffffffffffffffffff160217905550808273ffffffffffffffffffffffffffffffffffffffff168473ffffffffffffffffffffffffffffffffffffffff167fddf252ad1be2c89b69c2b068fc378daa952ba7f163c4a11628f55a4df523b3ef60405160405180910390a4505050565b60606000825114156116c557604051806020016040528060008152509050611848565b60006040518060600160405280604081526020016138d660409139905060006003600285516116f491906135af565b6116fe9190613605565b600461170a9190613636565b9050600060208261171b91906135af565b67ffffffffffffffff81111561175a577f4e487b7100000000000000000000000000000000000000000000000000000000600052604160045260246000fd5b6040519080825280601f01601f19166020018201604052801561178c5781602001600182028036833780820191505090505b509050818152600183018586518101602084015b81831015611807576003830192508251603f8160121c1685015160f81b8252600182019150603f81600c1c1685015160f81b8252600182019150603f8160061c1685015160f81b8252600182019150603f811685015160f81b8252600182019150506117a0565b60038951066001811461182157600281146118315761183c565b613d3d60f01b600283035261183c565b603d60f81b60018303525b50505050508093505050505b919050565b6000600a60009054906101000a900473ffffffffffffffffffffffffffffffffffffffff16905081600a60006101000a81548173ffffffffffffffffffffffffffffffffffffffff021916908373ffffffffffffffffffffffffffffffffffffffff1602179055508173ffffffffffffffffffffffffffffffffffffffff168173ffffffffffffffffffffffffffffffffffffffff167f8be0079c531659141344cd1fd0a4f28419497f9722a3daafe3b4186f6b6457e060405160405180910390a35050565b61191e848484611446565b61192a84848484611b0b565b611969576040517f08c379a0000000000000000000000000000000000000000000000000000000008152600401611960906132a0565b60405180910390fd5b50505050565b600081600001549050919050565b6119856112a7565b73ffffffffffffffffffffffffffffffffffffffff166119a3610afc565b73ffffffffffffffffffffffffffffffffffffffff16146119f9576040517f08c379a00000000000000000000000000000000000000000000000000000000081526004016119f090613400565b60405180910390fd5b611a0c81611a07600c61196f565b611ca2565b611a16600c611cc0565b50565b60007f80ac58cd000000000000000000000000000000000000000000000000000000007bffffffffffffffffffffffffffffffffffffffffffffffffffffffff1916827bffffffffffffffffffffffffffffffffffffffffffffffffffffffff19161480611ae457507f5b5e139f000000000000000000000000000000000000000000000000000000007bffffffffffffffffffffffffffffffffffffffffffffffffffffffff1916827bffffffffffffffffffffffffffffffffffffffffffffffffffffffff1916145b80611af45750611af382611cd6565b5b9050919050565b611b06838383611d40565b505050565b6000611b2c8473ffffffffffffffffffffffffffffffffffffffff16611e54565b15611c95578373ffffffffffffffffffffffffffffffffffffffff1663150b7a02611b556112a7565b8786866040518563ffffffff1660e01b8152600401611b7794939291906131f7565b602060405180830381600087803b158015611b9157600080fd5b505af1925050508015611bc257506040513d601f19601f82011682018060405250810190611bbf91906127b9565b60015b611c45573d8060008114611bf2576040519150601f19603f3d011682016040523d82523d6000602084013e611bf7565b606091505b50600081511415611c3d576040517f08c379a0000000000000000000000000000000000000000000000000000000008152600401611c34906132a0565b60405180910390fd5b805181602001fd5b63150b7a0260e01b7bffffffffffffffffffffffffffffffffffffffffffffffffffffffff1916817bffffffffffffffffffffffffffffffffffffffffffffffffffffffff191614915050611c9a565b600190505b949350505050565b611cbc828260405180602001604052806000815250611e67565b5050565b6001816000016000828254019250508190555050565b60007f01ffc9a7000000000000000000000000000000000000000000000000000000007bffffffffffffffffffffffffffffffffffffffffffffffffffffffff1916827bffffffffffffffffffffffffffffffffffffffffffffffffffffffff1916149050919050565b611d4b838383611ec2565b600073ffffffffffffffffffffffffffffffffffffffff168373ffffffffffffffffffffffffffffffffffffffff161415611d8e57611d8981611ec7565b611dcd565b8173ffffffffffffffffffffffffffffffffffffffff168373ffffffffffffffffffffffffffffffffffffffff1614611dcc57611dcb8382611f10565b5b5b600073ffffffffffffffffffffffffffffffffffffffff168273ffffffffffffffffffffffffffffffffffffffff161415611e1057611e0b8161207d565b611e4f565b8273ffffffffffffffffffffffffffffffffffffffff168273ffffffffffffffffffffffffffffffffffffffff1614611e4e57611e4d82826121c0565b5b5b505050565b600080823b905060008111915050919050565b611e71838361223f565b611e7e6000848484611b0b565b611ebd576040517f08c379a0000000000000000000000000000000000000000000000000000000008152600401611eb4906132a0565b60405180910390fd5b505050565b505050565b6008805490506009600083815260200190815260200160002081905550600881908060018154018082558091505060019003906000526020600020016000909190919091505550565b60006001611f1d846109bc565b611f279190613690565b905060006007600084815260200190815260200160002054905081811461200c576000600660008673ffffffffffffffffffffffffffffffffffffffff1673ffffffffffffffffffffffffffffffffffffffff168152602001908152602001600020600084815260200190815260200160002054905080600660008773ffffffffffffffffffffffffffffffffffffffff1673ffffffffffffffffffffffffffffffffffffffff168152602001908152602001600020600084815260200190815260200160002081905550816007600083815260200190815260200160002081905550505b6007600084815260200190815260200160002060009055600660008573ffffffffffffffffffffffffffffffffffffffff1673ffffffffffffffffffffffffffffffffffffffff16815260200190815260200160002060008381526020019081526020016000206000905550505050565b600060016008805490506120919190613690565b90506000600960008481526020019081526020016000205490506000600883815481106120e7577f4e487b7100000000000000000000000000000000000000000000000000000000600052603260045260246000fd5b90600052602060002001549050806008838154811061212f577f4e487b7100000000000000000000000000000000000000000000000000000000600052603260045260246000fd5b9060005260206000200181905550816009600083815260200190815260200160002081905550600960008581526020019081526020016000206000905560088054806121a4577f4e487b7100000000000000000000000000000000000000000000000000000000600052603160045260246000fd5b6001900381819060005260206000200160009055905550505050565b60006121cb836109bc565b905081600660008573ffffffffffffffffffffffffffffffffffffffff1673ffffffffffffffffffffffffffffffffffffffff168152602001908152602001600020600083815260200190815260200160002081905550806007600084815260200190815260200160002081905550505050565b600073ffffffffffffffffffffffffffffffffffffffff168273ffffffffffffffffffffffffffffffffffffffff1614156122af576040517f08c379a00000000000000000000000000000000000000000000000000000000081526004016122a6906133c0565b60405180910390fd5b6122b88161123b565b156122f8576040517f08c379a00000000000000000000000000000000000000000000000000000000081526004016122ef906132e0565b60405180910390fd5b61230460008383611afb565b6001600360008473ffffffffffffffffffffffffffffffffffffffff1673ffffffffffffffffffffffffffffffffffffffff168152602001908152602001600020600082825461235491906135af565b92505081905550816002600083815260200190815260200160002060006101000a81548173ffffffffffffffffffffffffffffffffffffffff021916908373ffffffffffffffffffffffffffffffffffffffff160217905550808273ffffffffffffffffffffffffffffffffffffffff16600073ffffffffffffffffffffffffffffffffffffffff167fddf252ad1be2c89b69c2b068fc378daa952ba7f163c4a11628f55a4df523b3ef60405160405180910390a45050565b8280546124199061377a565b90600052602060002090601f01602090048101928261243b5760008555612482565b82601f1061245457805160ff1916838001178555612482565b82800160010185558215612482579182015b82811115612481578251825591602001919060010190612466565b5b50905061248f9190612493565b5090565b5b808211156124ac576000816000905550600101612494565b5090565b60006124c36124be8461350c565b6134db565b9050828152602081018484840111156124db57600080fd5b6124e6848285613738565b509392505050565b60006125016124fc8461353c565b6134db565b90508281526020810184848401111561251957600080fd5b612524848285613738565b509392505050565b60008135905061253b81613879565b92915050565b60008135905061255081613890565b92915050565b600081359050612565816138a7565b92915050565b60008151905061257a816138a7565b92915050565b600082601f83011261259157600080fd5b81356125a18482602086016124b0565b91505092915050565b600082601f8301126125bb57600080fd5b81356125cb8482602086016124ee565b91505092915050565b6000813590506125e3816138be565b92915050565b6000602082840312156125fb57600080fd5b60006126098482850161252c565b91505092915050565b6000806040838503121561262557600080fd5b60006126338582860161252c565b92505060206126448582860161252c565b9150509250929050565b60008060006060848603121561266357600080fd5b60006126718682870161252c565b93505060206126828682870161252c565b9250506040612693868287016125d4565b9150509250925092565b600080600080608085870312156126b357600080fd5b60006126c18782880161252c565b94505060206126d28782880161252c565b93505060406126e3878288016125d4565b925050606085013567ffffffffffffffff81111561270057600080fd5b61270c87828801612580565b91505092959194509250565b6000806040838503121561272b57600080fd5b60006127398582860161252c565b925050602061274a85828601612541565b9150509250929050565b6000806040838503121561276757600080fd5b60006127758582860161252c565b9250506020612786858286016125d4565b9150509250929050565b6000602082840312156127a257600080fd5b60006127b084828501612556565b91505092915050565b6000602082840312156127cb57600080fd5b60006127d98482850161256b565b91505092915050565b6000602082840312156127f457600080fd5b600082013567ffffffffffffffff81111561280e57600080fd5b61281a848285016125aa565b91505092915050565b60006020828403121561283557600080fd5b6000612843848285016125d4565b91505092915050565b612855816136c4565b82525050565b612864816136d6565b82525050565b60006128758261356c565b61287f8185613582565b935061288f818560208601613747565b61289881613868565b840191505092915050565b60006128ae82613577565b6128b88185613593565b93506128c8818560208601613747565b6128d181613868565b840191505092915050565b60006128e782613577565b6128f181856135a4565b9350612901818560208601613747565b80840191505092915050565b600061291a6009836135a4565b91507f7b226e616d65223a2200000000000000000000000000000000000000000000006000830152600982019050919050565b600061295a602b83613593565b91507f455243373231456e756d657261626c653a206f776e657220696e646578206f7560008301527f74206f6620626f756e64730000000000000000000000000000000000000000006020830152604082019050919050565b60006129c0603283613593565b91507f4552433732313a207472616e7366657220746f206e6f6e20455243373231526560008301527f63656976657220696d706c656d656e74657200000000000000000000000000006020830152604082019050919050565b6000612a26602683613593565b91507f4f776e61626c653a206e6577206f776e657220697320746865207a65726f206160008301527f64647265737300000000000000000000000000000000000000000000000000006020830152604082019050919050565b6000612a8c601c83613593565b91507f4552433732313a20746f6b656e20616c7265616479206d696e746564000000006000830152602082019050919050565b6000612acc602483613593565b91507f4552433732313a207472616e7366657220746f20746865207a65726f2061646460008301527f72657373000000000000000000000000000000000000000000000000000000006020830152604082019050919050565b6000612b32601983613593565b91507f4552433732313a20617070726f766520746f2063616c6c6572000000000000006000830152602082019050919050565b6000612b72602c83613593565b91507f4552433732313a206f70657261746f7220717565727920666f72206e6f6e657860008301527f697374656e7420746f6b656e00000000000000000000000000000000000000006020830152604082019050919050565b6000612bd86009836135a4565b91507f53686170655377617000000000000000000000000000000000000000000000006000830152600982019050919050565b6000612c18603883613593565b91507f4552433732313a20617070726f76652063616c6c6572206973206e6f74206f7760008301527f6e6572206e6f7220617070726f76656420666f7220616c6c00000000000000006020830152604082019050919050565b6000612c7e602a83613593565b91507f4552433732313a2062616c616e636520717565727920666f7220746865207a6560008301527f726f2061646472657373000000000000000000000000000000000000000000006020830152604082019050919050565b6000612ce4602983613593565b91507f4552433732313a206f776e657220717565727920666f72206e6f6e657869737460008301527f656e7420746f6b656e00000000000000000000000000000000000000000000006020830152604082019050919050565b6000612d4a6002836135a4565b91507f227d0000000000000000000000000000000000000000000000000000000000006000830152600282019050919050565b6000612d8a602083613593565b91507f4552433732313a206d696e7420746f20746865207a65726f20616464726573736000830152602082019050919050565b6000612dca602c83613593565b91507f4552433732313a20617070726f76656420717565727920666f72206e6f6e657860008301527f697374656e7420746f6b656e00000000000000000000000000000000000000006020830152604082019050919050565b6000612e30602083613593565b91507f4f776e61626c653a2063616c6c6572206973206e6f7420746865206f776e65726000830152602082019050919050565b6000612e70602983613593565b91507f4552433732313a207472616e73666572206f6620746f6b656e2074686174206960008301527f73206e6f74206f776e00000000000000000000000000000000000000000000006020830152604082019050919050565b6000612ed6602f83613593565b91507f4552433732314d657461646174613a2055524920717565727920666f72206e6f60008301527f6e6578697374656e7420746f6b656e00000000000000000000000000000000006020830152604082019050919050565b6000612f3c602183613593565b91507f4552433732313a20617070726f76616c20746f2063757272656e74206f776e6560008301527f72000000000000000000000000000000000000000000000000000000000000006020830152604082019050919050565b6000612fa2601d836135a4565b91507f646174613a6170706c69636174696f6e2f6a736f6e3b6261736536342c0000006000830152601d82019050919050565b6000612fe26055836135a4565b91507f222c20226465736372697074696f6e223a225368617065204e4654732077686f60008301527f736520636f6c6f72732063616e206265206368616e676564222c20226174747260208301527f696275746573223a22222c2022696d616765223a2200000000000000000000006040830152605582019050919050565b600061306e603183613593565b91507f4552433732313a207472616e736665722063616c6c6572206973206e6f74206f60008301527f776e6572206e6f7220617070726f7665640000000000000000000000000000006020830152604082019050919050565b60006130d4602c83613593565b91507f455243373231456e756d657261626c653a20676c6f62616c20696e646578206f60008301527f7574206f6620626f756e647300000000000000000000000000000000000000006020830152604082019050919050565b6131368161372e565b82525050565b600061314882846128dc565b915081905092915050565b600061315f82856128dc565b915061316b82846128dc565b91508190509392505050565b60006131828261290d565b915061318d82612bcb565b915061319882612fd5565b91506131a482846128dc565b91506131af82612d3d565b915081905092915050565b60006131c582612f95565b91506131d182846128dc565b915081905092915050565b60006020820190506131f1600083018461284c565b92915050565b600060808201905061320c600083018761284c565b613219602083018661284c565b613226604083018561312d565b8181036060830152613238818461286a565b905095945050505050565b6000602082019050613258600083018461285b565b92915050565b6000602082019050818103600083015261327881846128a3565b905092915050565b600060208201905081810360008301526132998161294d565b9050919050565b600060208201905081810360008301526132b9816129b3565b9050919050565b600060208201905081810360008301526132d981612a19565b9050919050565b600060208201905081810360008301526132f981612a7f565b9050919050565b6000602082019050818103600083015261331981612abf565b9050919050565b6000602082019050818103600083015261333981612b25565b9050919050565b6000602082019050818103600083015261335981612b65565b9050919050565b6000602082019050818103600083015261337981612c0b565b9050919050565b6000602082019050818103600083015261339981612c71565b9050919050565b600060208201905081810360008301526133b981612cd7565b9050919050565b600060208201905081810360008301526133d981612d7d565b9050919050565b600060208201905081810360008301526133f981612dbd565b9050919050565b6000602082019050818103600083015261341981612e23565b9050919050565b6000602082019050818103600083015261343981612e63565b9050919050565b6000602082019050818103600083015261345981612ec9565b9050919050565b6000602082019050818103600083015261347981612f2f565b9050919050565b6000602082019050818103600083015261349981613061565b9050919050565b600060208201905081810360008301526134b9816130c7565b9050919050565b60006020820190506134d5600083018461312d565b92915050565b6000604051905081810181811067ffffffffffffffff8211171561350257613501613839565b5b8060405250919050565b600067ffffffffffffffff82111561352757613526613839565b5b601f19601f8301169050602081019050919050565b600067ffffffffffffffff82111561355757613556613839565b5b601f19601f8301169050602081019050919050565b600081519050919050565b600081519050919050565b600082825260208201905092915050565b600082825260208201905092915050565b600081905092915050565b60006135ba8261372e565b91506135c58361372e565b9250827fffffffffffffffffffffffffffffffffffffffffffffffffffffffffffffffff038211156135fa576135f96137ac565b5b828201905092915050565b60006136108261372e565b915061361b8361372e565b92508261362b5761362a6137db565b5b828204905092915050565b60006136418261372e565b915061364c8361372e565b9250817fffffffffffffffffffffffffffffffffffffffffffffffffffffffffffffffff0483118215151615613685576136846137ac565b5b828202905092915050565b600061369b8261372e565b91506136a68361372e565b9250828210156136b9576136b86137ac565b5b828203905092915050565b60006136cf8261370e565b9050919050565b60008115159050919050565b60007fffffffff0000000000000000000000000000000000000000000000000000000082169050919050565b600073ffffffffffffffffffffffffffffffffffffffff82169050919050565b6000819050919050565b82818337600083830152505050565b60005b8381101561376557808201518184015260208101905061374a565b83811115613774576000848401525b50505050565b6000600282049050600182168061379257607f821691505b602082108114156137a6576137a561380a565b5b50919050565b7f4e487b7100000000000000000000000000000000000000000000000000000000600052601160045260246000fd5b7f4e487b7100000000000000000000000000000000000000000000000000000000600052601260045260246000fd5b7f4e487b7100000000000000000000000000000000000000000000000000000000600052602260045260246000fd5b7f4e487b7100000000000000000000000000000000000000000000000000000000600052604160045260246000fd5b6000601f19601f8301169050919050565b613882816136c4565b811461388d57600080fd5b50565b613899816136d6565b81146138a457600080fd5b50565b6138b0816136e2565b81146138bb57600080fd5b50565b6138c78161372e565b81146138d257600080fd5b5056fe4142434445464748494a4b4c4d4e4f505152535455565758595a6162636465666768696a6b6c6d6e6f707172737475767778797a303132333435363738392b2fa2646970667358221220232f791da26baae5b7ef99338dafc2abc78471b5c5529519ac8928f7c3bb857064736f6c63430008000033",
  "immutableReferences": {},
  "source": "// SPDX-License-Identifier: MIT\npragma solidity >=0.4.22 <0.9.0;\n\nimport \"@openzeppelin/contracts/token/ERC721/ERC721.sol\";\nimport \"@openzeppelin/contracts/access/Ownable.sol\";\nimport \"@openzeppelin/contracts/utils/Counters.sol\";\nimport \"@openzeppelin/contracts/token/ERC721/extensions/ERC721Enumerable.sol\";\nimport \"base64-sol/base64.sol\";\n\ncontract ShapeSwap is ERC721, ERC721Enumerable, Ownable {\n    // TokenIDs mapped to base64 encoded SVGs\n    mapping(uint256 => string) public tokenIdToSvg;\n    \n    using Counters for Counters.Counter;\n\n    Counters.Counter private _tokenIdCounter;\n    \n\n    constructor() ERC721(\"ShapeSwap\", \"Shape\") {}\n\n    function safeMint(address to) private onlyOwner {\n        _safeMint(to, _tokenIdCounter.current());\n        _tokenIdCounter.increment();\n    }\n\n    function mintShape(string memory svg) public onlyOwner {\n        tokenIdToSvg[_tokenIdCounter.current()] = svg;\n      safeMint(msg.sender);\n    }\n\n    // function updateColor(hex) {\n    //     substitute fill = \"\" with something else\n    // }\n\n    // You could also just upload the raw SVG and have solildity convert it!\n    function svgToImageURI(string memory s) public pure returns (string memory) {\n        // example:\n        // '<svg width=\"500\" height=\"500\" viewBox=\"0 0 285 350\" fill=\"none\" xmlns=\"http://www.w3.org/2000/svg\"><path fill=\"black\" d=\"M150,0,L75,200,L225,200,Z\"></path></svg>'\n        // would return \"\"\n        string memory baseURL = \"data:image/svg+xml;base64,\";\n        string memory svgBase64Encoded = Base64.encode(bytes(string(abi.encodePacked(s))));\n        return string(abi.encodePacked(baseURL,svgBase64Encoded));\n    }\n\n    function tokenURI(uint256 tokenId)\n        public\n        view\n        virtual\n        override\n        returns (string memory)\n    {\n        require(\n            _exists(tokenId),\n            \"ERC721Metadata: URI query for nonexistent token\"\n        );\n        string memory svg = tokenIdToSvg[tokenId];\n        return string(\n                abi.encodePacked(\n                    \"data:application/json;base64,\",\n                    Base64.encode(\n                        bytes(\n                            abi.encodePacked(\n                                '{\"name\":\"',\n                                \"ShapeSwap\", // You can add whatever name here\n                                '\", \"description\":\"Shape NFTs whose colors can be changed\", \"attributes\":\"\", \"image\":\"', svgToImageURI(svg),'\"}'\n                            )\n                        )\n                    )\n                )\n            );\n    }\n\n    // The following functions are overrides required by Solidity.\n\n    function _beforeTokenTransfer(address from, address to, uint256 tokenId)\n        internal\n        override(ERC721, ERC721Enumerable)\n    {\n        super._beforeTokenTransfer(from, to, tokenId);\n    }\n\n    function supportsInterface(bytes4 interfaceId)\n        public\n        view\n        override(ERC721, ERC721Enumerable)\n        returns (bool)\n    {\n        return super.supportsInterface(interfaceId);\n    }\n}\n",
  "sourcePath": "/home/rampeylabs/Documents/solidity-experiments/nft/contracts/ShapeSwap.sol",
  "compiler": {
    "name": "solc",
    "version": "0.8.0+commit.c7dfd78e.Emscripten.clang"
  },
  "schemaVersion": "3.4.3",
  "updatedAt": "2021-09-06T18:53:18.434Z",
  "networkType": "ethereum",
  "devdoc": {
    "kind": "dev",
    "methods": {
      "approve(address,uint256)": {
        "details": "See {IERC721-approve}."
      },
      "balanceOf(address)": {
        "details": "See {IERC721-balanceOf}."
      },
      "getApproved(uint256)": {
        "details": "See {IERC721-getApproved}."
      },
      "isApprovedForAll(address,address)": {
        "details": "See {IERC721-isApprovedForAll}."
      },
      "name()": {
        "details": "See {IERC721Metadata-name}."
      },
      "owner()": {
        "details": "Returns the address of the current owner."
      },
      "ownerOf(uint256)": {
        "details": "See {IERC721-ownerOf}."
      },
      "renounceOwnership()": {
        "details": "Leaves the contract without owner. It will not be possible to call `onlyOwner` functions anymore. Can only be called by the current owner. NOTE: Renouncing ownership will leave the contract without an owner, thereby removing any functionality that is only available to the owner."
      },
      "safeTransferFrom(address,address,uint256)": {
        "details": "See {IERC721-safeTransferFrom}."
      },
      "safeTransferFrom(address,address,uint256,bytes)": {
        "details": "See {IERC721-safeTransferFrom}."
      },
      "setApprovalForAll(address,bool)": {
        "details": "See {IERC721-setApprovalForAll}."
      },
      "symbol()": {
        "details": "See {IERC721Metadata-symbol}."
      },
      "tokenByIndex(uint256)": {
        "details": "See {IERC721Enumerable-tokenByIndex}."
      },
      "tokenOfOwnerByIndex(address,uint256)": {
        "details": "See {IERC721Enumerable-tokenOfOwnerByIndex}."
      },
      "tokenURI(uint256)": {
        "details": "See {IERC721Metadata-tokenURI}."
      },
      "totalSupply()": {
        "details": "See {IERC721Enumerable-totalSupply}."
      },
      "transferFrom(address,address,uint256)": {
        "details": "See {IERC721-transferFrom}."
      },
      "transferOwnership(address)": {
        "details": "Transfers ownership of the contract to a new account (`newOwner`). Can only be called by the current owner."
      }
    },
    "version": 1
  },
  "userdoc": {
    "kind": "user",
    "methods": {},
    "version": 1
  }
}